{
  "contractName": "Admin",
  "abi": [
    {
      "inputs": [],
      "stateMutability": "nonpayable",
      "type": "constructor"
    },
    {
      "inputs": [
        {
          "internalType": "address",
          "name": "_bankAddress",
          "type": "address"
        }
      ],
      "name": "getBankComplaints",
      "outputs": [
        {
          "internalType": "uint256",
          "name": "",
          "type": "uint256"
        }
      ],
      "stateMutability": "view",
      "type": "function"
    },
    {
      "inputs": [
        {
          "internalType": "address",
          "name": "_bankAddress",
          "type": "address"
        }
      ],
      "name": "viewBankDetails",
      "outputs": [
        {
          "components": [
            {
              "internalType": "string",
              "name": "name",
              "type": "string"
            },
            {
              "internalType": "address",
              "name": "ethAddress",
              "type": "address"
            },
            {
              "internalType": "uint256",
              "name": "complaintsReported",
              "type": "uint256"
            },
            {
              "internalType": "uint256",
              "name": "kycCount",
              "type": "uint256"
            },
            {
              "internalType": "bool",
              "name": "isAllowedToVote",
              "type": "bool"
            },
            {
              "internalType": "string",
              "name": "regNumber",
              "type": "string"
            }
          ],
          "internalType": "struct Admin.Bank",
          "name": "",
          "type": "tuple"
        }
      ],
      "stateMutability": "view",
      "type": "function"
    },
    {
      "inputs": [
        {
          "internalType": "address",
          "name": "_bankAddress",
          "type": "address"
        }
      ],
      "name": "reportBank",
      "outputs": [],
      "stateMutability": "nonpayable",
      "type": "function"
    },
    {
      "inputs": [
        {
          "internalType": "string",
          "name": "_name",
          "type": "string"
        },
        {
          "internalType": "address",
          "name": "_bankAddress",
          "type": "address"
        },
        {
          "internalType": "string",
          "name": "_registrationNumber",
          "type": "string"
        }
      ],
      "name": "addBank",
      "outputs": [],
      "stateMutability": "nonpayable",
      "type": "function"
    },
    {
      "inputs": [
        {
          "internalType": "address",
          "name": "_bankAddress",
          "type": "address"
        },
        {
          "internalType": "bool",
          "name": "_isAllowedToVote",
          "type": "bool"
        }
      ],
      "name": "toggleVote",
      "outputs": [],
      "stateMutability": "nonpayable",
      "type": "function"
    },
    {
      "inputs": [
        {
          "internalType": "address",
          "name": "_bankAddress",
          "type": "address"
        }
      ],
      "name": "removeBank",
      "outputs": [],
      "stateMutability": "nonpayable",
      "type": "function"
    }
  ],
  "bytecode": "0x6080604052600060015534801561001557600080fd5b50336000806101000a81548173ffffffffffffffffffffffffffffffffffffffff021916908373ffffffffffffffffffffffffffffffffffffffff160217905550611792806100656000396000f3fe608060405234801561001057600080fd5b50600436106100625760003560e01c80635ec2a7f2146100675780637b49753d1461009757806388cc8d8d146100b35780639649650c146100e3578063a5a49800146100ff578063ccfa8e711461011b575b600080fd5b610081600480360381019061007c919061111c565b610137565b60405161008e91906114fd565b60405180910390f35b6100b160048036038101906100ac9190611145565b61021c565b005b6100cd60048036038101906100c8919061111c565b6102b8565b6040516100da91906114db565b60405180910390f35b6100fd60048036038101906100f8919061111c565b610554565b005b6101196004803603810190610114919061111c565b610782565b005b61013560048036038101906101309190611181565b610b16565b005b600080600260008473ffffffffffffffffffffffffffffffffffffffff1673ffffffffffffffffffffffffffffffffffffffff1681526020019081526020016000209050600073ffffffffffffffffffffffffffffffffffffffff168160010160009054906101000a900473ffffffffffffffffffffffffffffffffffffffff1673ffffffffffffffffffffffffffffffffffffffff16141561020f576040517f08c379a00000000000000000000000000000000000000000000000000000000081526004016102069061149b565b60405180910390fd5b8060020154915050919050565b60008054906101000a900473ffffffffffffffffffffffffffffffffffffffff1673ffffffffffffffffffffffffffffffffffffffff163373ffffffffffffffffffffffffffffffffffffffff16146102aa576040517f08c379a00000000000000000000000000000000000000000000000000000000081526004016102a19061145b565b60405180910390fd5b6102b48282610e61565b5050565b6102c0610f77565b6000600260008473ffffffffffffffffffffffffffffffffffffffff1673ffffffffffffffffffffffffffffffffffffffff1681526020019081526020016000209050600073ffffffffffffffffffffffffffffffffffffffff168160010160009054906101000a900473ffffffffffffffffffffffffffffffffffffffff1673ffffffffffffffffffffffffffffffffffffffff161415610397576040517f08c379a000000000000000000000000000000000000000000000000000000000815260040161038e9061149b565b60405180910390fd5b806040518060c00160405290816000820180546103b390611644565b80601f01602080910402602001604051908101604052809291908181526020018280546103df90611644565b801561042c5780601f106104015761010080835404028352916020019161042c565b820191906000526020600020905b81548152906001019060200180831161040f57829003601f168201915b505050505081526020016001820160009054906101000a900473ffffffffffffffffffffffffffffffffffffffff1673ffffffffffffffffffffffffffffffffffffffff1673ffffffffffffffffffffffffffffffffffffffff16815260200160028201548152602001600382015481526020016004820160009054906101000a900460ff161515151581526020016005820180546104ca90611644565b80601f01602080910402602001604051908101604052809291908181526020018280546104f690611644565b80156105435780601f1061051857610100808354040283529160200191610543565b820191906000526020600020905b81548152906001019060200180831161052657829003601f168201915b505050505081525050915050919050565b60008054906101000a900473ffffffffffffffffffffffffffffffffffffffff1673ffffffffffffffffffffffffffffffffffffffff163373ffffffffffffffffffffffffffffffffffffffff16146105e2576040517f08c379a00000000000000000000000000000000000000000000000000000000081526004016105d99061145b565b60405180910390fd5b6000600260008373ffffffffffffffffffffffffffffffffffffffff1673ffffffffffffffffffffffffffffffffffffffff1681526020019081526020016000209050600073ffffffffffffffffffffffffffffffffffffffff168160010160009054906101000a900473ffffffffffffffffffffffffffffffffffffffff1673ffffffffffffffffffffffffffffffffffffffff1614156106b9576040517f08c379a00000000000000000000000000000000000000000000000000000000081526004016106b09061149b565b60405180910390fd5b600260008373ffffffffffffffffffffffffffffffffffffffff1673ffffffffffffffffffffffffffffffffffffffff168152602001908152602001600020600080820160006107099190610fc5565b6001820160006101000a81549073ffffffffffffffffffffffffffffffffffffffff0219169055600282016000905560038201600090556004820160006101000a81549060ff02191690556005820160006107649190610fc5565b5050600160008154809291906107799061161a565b91905055505050565b6000600260003373ffffffffffffffffffffffffffffffffffffffff1673ffffffffffffffffffffffffffffffffffffffff1681526020019081526020016000206040518060c00160405290816000820180546107de90611644565b80601f016020809104026020016040519081016040528092919081815260200182805461080a90611644565b80156108575780601f1061082c57610100808354040283529160200191610857565b820191906000526020600020905b81548152906001019060200180831161083a57829003601f168201915b505050505081526020016001820160009054906101000a900473ffffffffffffffffffffffffffffffffffffffff1673ffffffffffffffffffffffffffffffffffffffff1673ffffffffffffffffffffffffffffffffffffffff16815260200160028201548152602001600382015481526020016004820160009054906101000a900460ff161515151581526020016005820180546108f590611644565b80601f016020809104026020016040519081016040528092919081815260200182805461092190611644565b801561096e5780601f106109435761010080835404028352916020019161096e565b820191906000526020600020905b81548152906001019060200180831161095157829003601f168201915b5050505050815250509050600073ffffffffffffffffffffffffffffffffffffffff16816020015173ffffffffffffffffffffffffffffffffffffffff16141580156109bb575080608001515b6109fa576040517f08c379a00000000000000000000000000000000000000000000000000000000081526004016109f1906114bb565b60405180910390fd5b6000600260008473ffffffffffffffffffffffffffffffffffffffff1673ffffffffffffffffffffffffffffffffffffffff1681526020019081526020016000209050600073ffffffffffffffffffffffffffffffffffffffff168160010160009054906101000a900473ffffffffffffffffffffffffffffffffffffffff1673ffffffffffffffffffffffffffffffffffffffff161415610ad1576040517f08c379a0000000000000000000000000000000000000000000000000000000008152600401610ac89061149b565b60405180910390fd5b806002016000815480929190610ae690611676565b919050555060015460038260020154610aff9190611545565b1115610b1157610b10836000610e61565b5b505050565b60008054906101000a900473ffffffffffffffffffffffffffffffffffffffff1673ffffffffffffffffffffffffffffffffffffffff163373ffffffffffffffffffffffffffffffffffffffff1614610ba4576040517f08c379a0000000000000000000000000000000000000000000000000000000008152600401610b9b9061145b565b60405180910390fd5b6000600260008573ffffffffffffffffffffffffffffffffffffffff1673ffffffffffffffffffffffffffffffffffffffff1681526020019081526020016000209050600073ffffffffffffffffffffffffffffffffffffffff168160010160009054906101000a900473ffffffffffffffffffffffffffffffffffffffff1673ffffffffffffffffffffffffffffffffffffffff1614610c7a576040517f08c379a0000000000000000000000000000000000000000000000000000000008152600401610c719061147b565b60405180910390fd5b6040518060c0016040528087878080601f016020809104026020016040519081016040528093929190818152602001838380828437600081840152601f19601f8201169050808301925050505050505081526020018573ffffffffffffffffffffffffffffffffffffffff168152602001600081526020016000815260200160011515815260200184848080601f016020809104026020016040519081016040528093929190818152602001838380828437600081840152601f19601f82011690508083019250505050505050815250600260008673ffffffffffffffffffffffffffffffffffffffff1673ffffffffffffffffffffffffffffffffffffffff1681526020019081526020016000206000820151816000019080519060200190610da5929190611005565b5060208201518160010160006101000a81548173ffffffffffffffffffffffffffffffffffffffff021916908373ffffffffffffffffffffffffffffffffffffffff160217905550604082015181600201556060820151816003015560808201518160040160006101000a81548160ff02191690831515021790555060a0820151816005019080519060200190610e3d929190611005565b5090505060016000815480929190610e5490611676565b9190505550505050505050565b6000600260008473ffffffffffffffffffffffffffffffffffffffff1673ffffffffffffffffffffffffffffffffffffffff1681526020019081526020016000209050600073ffffffffffffffffffffffffffffffffffffffff168160010160009054906101000a900473ffffffffffffffffffffffffffffffffffffffff1673ffffffffffffffffffffffffffffffffffffffff161415610f38576040517f08c379a0000000000000000000000000000000000000000000000000000000008152600401610f2f9061149b565b60405180910390fd5b818160040160006101000a81548160ff02191690831515021790555081610f725760016000815480929190610f6c9061161a565b91905055505b505050565b6040518060c0016040528060608152602001600073ffffffffffffffffffffffffffffffffffffffff1681526020016000815260200160008152602001600015158152602001606081525090565b508054610fd190611644565b6000825580601f10610fe35750611002565b601f016020900490600052602060002090810190611001919061108b565b5b50565b82805461101190611644565b90600052602060002090601f016020900481019282611033576000855561107a565b82601f1061104c57805160ff191683800117855561107a565b8280016001018555821561107a579182015b8281111561107957825182559160200191906001019061105e565b5b509050611087919061108b565b5090565b5b808211156110a457600081600090555060010161108c565b5090565b6000813590506110b78161172e565b92915050565b6000813590506110cc81611745565b92915050565b60008083601f8401126110e457600080fd5b8235905067ffffffffffffffff8111156110fd57600080fd5b60208301915083600182028301111561111557600080fd5b9250929050565b60006020828403121561112e57600080fd5b600061113c848285016110a8565b91505092915050565b6000806040838503121561115857600080fd5b6000611166858286016110a8565b9250506020611177858286016110bd565b9150509250929050565b60008060008060006060868803121561119957600080fd5b600086013567ffffffffffffffff8111156111b357600080fd5b6111bf888289016110d2565b955095505060206111d2888289016110a8565b935050604086013567ffffffffffffffff8111156111ef57600080fd5b6111fb888289016110d2565b92509250509295509295909350565b6112138161159f565b82525050565b611222816115b1565b82525050565b600061123382611518565b61123d8185611523565b935061124d8185602086016115e7565b6112568161171d565b840191505092915050565b600061126e602383611534565b91507f556e417574686f72697365642054726173616374696f6e2e2041646d696e204f60008301527f6e6c7900000000000000000000000000000000000000000000000000000000006020830152604082019050919050565b60006112d4601283611534565b91507f42616e6b20657869737420616c726561647900000000000000000000000000006000830152602082019050919050565b6000611314601283611534565b91507f42616e6b20646f65736e277420657869737400000000000000000000000000006000830152602082019050919050565b6000611354602a83611534565b91507f556e417574686f7269736564205472616e73616374696f6e2e2041637469766560008301527f2042616e6b204f6e6c79000000000000000000000000000000000000000000006020830152604082019050919050565b600060c08301600083015184820360008601526113ca8282611228565b91505060208301516113df602086018261120a565b5060408301516113f2604086018261143d565b506060830151611405606086018261143d565b5060808301516114186080860182611219565b5060a083015184820360a08601526114308282611228565b9150508091505092915050565b611446816115dd565b82525050565b611455816115dd565b82525050565b6000602082019050818103600083015261147481611261565b9050919050565b60006020820190508181036000830152611494816112c7565b9050919050565b600060208201905081810360008301526114b481611307565b9050919050565b600060208201905081810360008301526114d481611347565b9050919050565b600060208201905081810360008301526114f581846113ad565b905092915050565b6000602082019050611512600083018461144c565b92915050565b600081519050919050565b600082825260208201905092915050565b600082825260208201905092915050565b6000611550826115dd565b915061155b836115dd565b9250817fffffffffffffffffffffffffffffffffffffffffffffffffffffffffffffffff0483118215151615611594576115936116bf565b5b828202905092915050565b60006115aa826115bd565b9050919050565b60008115159050919050565b600073ffffffffffffffffffffffffffffffffffffffff82169050919050565b6000819050919050565b60005b838110156116055780820151818401526020810190506115ea565b83811115611614576000848401525b50505050565b6000611625826115dd565b91506000821415611639576116386116bf565b5b600182039050919050565b6000600282049050600182168061165c57607f821691505b602082108114156116705761166f6116ee565b5b50919050565b6000611681826115dd565b91507fffffffffffffffffffffffffffffffffffffffffffffffffffffffffffffffff8214156116b4576116b36116bf565b5b600182019050919050565b7f4e487b7100000000000000000000000000000000000000000000000000000000600052601160045260246000fd5b7f4e487b7100000000000000000000000000000000000000000000000000000000600052602260045260246000fd5b6000601f19601f8301169050919050565b6117378161159f565b811461174257600080fd5b50565b61174e816115b1565b811461175957600080fd5b5056fea26469706673582212208785d3e4ee7e4a8ace54a8353dcf6e7accb088dd5d375f7ce468fab3b795323e64736f6c63430008000033",
  "immutableReferences": {},
  "source": "pragma solidity 0.8.0;\n// SPDX-License-Identifier: MIT\n\ncontract Admin {\n    address private owner;\n\n    struct Bank{\n        string name;\n        address ethAddress; //  unique Ethereum address of the bank/organisation\n        uint256  complaintsReported; // number of complaints against this bank done by other banks in the network.\n        uint256 kycCount; // number of KYC requests initiated by the bank/organisation.\n        bool isAllowedToVote;\n        string regNumber; //   registration number for the bank.\n    }\n\n    uint256 internal activeBanksCount = 0;\n\n    mapping(address => Bank) internal banks;\n\n    constructor() {\n        owner = msg.sender;\n    }\n\n    modifier onlyOwner {\n        require(msg.sender == owner, \"UnAuthorised Trasaction. Admin Only\");\n        _;\n    }\n\n    modifier onlyBank {\n        require(banks[msg.sender].ethAddress != address(0), \"UnAuthorised Transaction. Bank Only\");\n        _;\n    }\n\n    modifier activeBank {\n        Bank memory _detail = banks[msg.sender];\n        require(_detail.ethAddress != address(0) && _detail.isAllowedToVote, \"UnAuthorised Transaction. Active Bank Only\");\n        _;\n    }\n\n\n    function getBankComplaints(address  _bankAddress) public view returns(uint256){\n        Bank storage detail = banks[_bankAddress];\n        require(detail.ethAddress != address(0), \"Bank doesn't exist\");\n        return detail.complaintsReported;\n    }\n\n    function viewBankDetails(address _bankAddress) public view returns(Bank memory){\n        Bank storage detail = banks[_bankAddress];\n        require(detail.ethAddress != address(0), \"Bank doesn't exist\");\n        return detail;\n    }\n\n    function reportBank(address  _bankAddress) public activeBank {\n        Bank storage detail = banks[_bankAddress];\n        require(detail.ethAddress != address(0), \"Bank doesn't exist\");\n        detail.complaintsReported++;\n        if(detail.complaintsReported * 3 > activeBanksCount){ // if 1/3 of the banks have reported a bank then revoke the rights\n            _changeVotingRights(_bankAddress, false);\n        }\n\n    }\n\n    function addBank(string calldata _name, address _bankAddress, string calldata _registrationNumber) external onlyOwner {\n        Bank storage detail = banks[_bankAddress];\n        require(detail.ethAddress == address(0), \"Bank exist already\");\n        banks[_bankAddress] = Bank(_name,_bankAddress,0,0,true,_registrationNumber);\n        activeBanksCount++;\n    }\n\n    function _changeVotingRights(address _bankAddress, bool _isAllowedToVote) private {\n        Bank storage detail = banks[_bankAddress];\n        require(detail.ethAddress != address(0), \"Bank doesn't exist\");\n        detail.isAllowedToVote = _isAllowedToVote;\n        if(!_isAllowedToVote){\n            activeBanksCount--;\n        }\n    }\n\n    function toggleVote(address _bankAddress, bool _isAllowedToVote) external onlyOwner {\n        _changeVotingRights(_bankAddress,_isAllowedToVote);\n    }\n\n    function removeBank(address _bankAddress) external onlyOwner {\n        Bank storage detail = banks[_bankAddress];\n        require(detail.ethAddress != address(0), \"Bank doesn't exist\");\n        delete(banks[_bankAddress]);\n        activeBanksCount--;\n    }\n}\n",
  "sourcePath": "/Users/snallayan/Fun/blockchain-playground/phase3/KYC-SC/contracts/Admin.sol",
  "compiler": {
    "name": "solc",
    "version": "0.8.0+commit.c7dfd78e.Emscripten.clang"
  },
  "schemaVersion": "3.4.1",
  "updatedAt": "2021-06-07T17:11:42.832Z",
  "devdoc": {
    "kind": "dev",
    "methods": {},
    "version": 1
  },
  "userdoc": {
    "kind": "user",
    "methods": {},
    "version": 1
  }
}