{
  "contractName": "Admin",
  "abi": [
    {
      "inputs": [],
      "stateMutability": "nonpayable",
      "type": "constructor"
    },
    {
      "inputs": [],
      "name": "activeBanksCount",
      "outputs": [
        {
          "internalType": "uint256",
          "name": "",
          "type": "uint256"
        }
      ],
      "stateMutability": "view",
      "type": "function"
    },
    {
      "inputs": [
        {
          "internalType": "address",
          "name": "_bankAddress",
          "type": "address"
        }
      ],
      "name": "getBankComplaints",
      "outputs": [
        {
          "internalType": "uint256",
          "name": "",
          "type": "uint256"
        }
      ],
      "stateMutability": "view",
      "type": "function"
    },
    {
      "inputs": [
        {
          "internalType": "address",
          "name": "_bankAddress",
          "type": "address"
        }
      ],
      "name": "viewBankDetails",
      "outputs": [
        {
          "components": [
            {
              "internalType": "string",
              "name": "name",
              "type": "string"
            },
            {
              "internalType": "address",
              "name": "ethAddress",
              "type": "address"
            },
            {
              "internalType": "uint256",
              "name": "complaintsReported",
              "type": "uint256"
            },
            {
              "internalType": "uint256",
              "name": "kycCount",
              "type": "uint256"
            },
            {
              "internalType": "bool",
              "name": "isAllowedToVote",
              "type": "bool"
            },
            {
              "internalType": "string",
              "name": "regNumber",
              "type": "string"
            }
          ],
          "internalType": "struct Admin.Bank",
          "name": "",
          "type": "tuple"
        }
      ],
      "stateMutability": "view",
      "type": "function"
    },
    {
      "inputs": [
        {
          "internalType": "address",
          "name": "_bankAddress",
          "type": "address"
        }
      ],
      "name": "reportBank",
      "outputs": [],
      "stateMutability": "nonpayable",
      "type": "function"
    },
    {
      "inputs": [
        {
          "internalType": "string",
          "name": "_name",
          "type": "string"
        },
        {
          "internalType": "address",
          "name": "_bankAddress",
          "type": "address"
        },
        {
          "internalType": "string",
          "name": "_registrationNumber",
          "type": "string"
        }
      ],
      "name": "addBank",
      "outputs": [],
      "stateMutability": "nonpayable",
      "type": "function"
    },
    {
      "inputs": [
        {
          "internalType": "address",
          "name": "_bankAddress",
          "type": "address"
        },
        {
          "internalType": "bool",
          "name": "_isAllowedToVote",
          "type": "bool"
        }
      ],
      "name": "toggleVote",
      "outputs": [],
      "stateMutability": "nonpayable",
      "type": "function"
    },
    {
      "inputs": [
        {
          "internalType": "address",
          "name": "_bankAddress",
          "type": "address"
        }
      ],
      "name": "removeBank",
      "outputs": [],
      "stateMutability": "nonpayable",
      "type": "function"
    }
  ],
  "bytecode": "0x6080604052600060015534801561001557600080fd5b50336000806101000a81548173ffffffffffffffffffffffffffffffffffffffff021916908373ffffffffffffffffffffffffffffffffffffffff1602179055506117d1806100656000396000f3fe608060405234801561001057600080fd5b506004361061007d5760003560e01c80639649650c1161005b5780639649650c146100fe578063a5a498001461011a578063ccfa8e7114610136578063fa09bdc6146101525761007d565b80635ec2a7f2146100825780637b49753d146100b257806388cc8d8d146100ce575b600080fd5b61009c6004803603810190610097919061115b565b610170565b6040516100a9919061153c565b60405180910390f35b6100cc60048036038101906100c79190611184565b610255565b005b6100e860048036038101906100e3919061115b565b6102f1565b6040516100f5919061151a565b60405180910390f35b6101186004803603810190610113919061115b565b61058d565b005b610134600480360381019061012f919061115b565b6107bb565b005b610150600480360381019061014b91906111c0565b610b4f565b005b61015a610e9a565b604051610167919061153c565b60405180910390f35b600080600260008473ffffffffffffffffffffffffffffffffffffffff1673ffffffffffffffffffffffffffffffffffffffff1681526020019081526020016000209050600073ffffffffffffffffffffffffffffffffffffffff168160010160009054906101000a900473ffffffffffffffffffffffffffffffffffffffff1673ffffffffffffffffffffffffffffffffffffffff161415610248576040517f08c379a000000000000000000000000000000000000000000000000000000000815260040161023f906114da565b60405180910390fd5b8060020154915050919050565b60008054906101000a900473ffffffffffffffffffffffffffffffffffffffff1673ffffffffffffffffffffffffffffffffffffffff163373ffffffffffffffffffffffffffffffffffffffff16146102e3576040517f08c379a00000000000000000000000000000000000000000000000000000000081526004016102da9061149a565b60405180910390fd5b6102ed8282610ea0565b5050565b6102f9610fb6565b6000600260008473ffffffffffffffffffffffffffffffffffffffff1673ffffffffffffffffffffffffffffffffffffffff1681526020019081526020016000209050600073ffffffffffffffffffffffffffffffffffffffff168160010160009054906101000a900473ffffffffffffffffffffffffffffffffffffffff1673ffffffffffffffffffffffffffffffffffffffff1614156103d0576040517f08c379a00000000000000000000000000000000000000000000000000000000081526004016103c7906114da565b60405180910390fd5b806040518060c00160405290816000820180546103ec90611683565b80601f016020809104026020016040519081016040528092919081815260200182805461041890611683565b80156104655780601f1061043a57610100808354040283529160200191610465565b820191906000526020600020905b81548152906001019060200180831161044857829003601f168201915b505050505081526020016001820160009054906101000a900473ffffffffffffffffffffffffffffffffffffffff1673ffffffffffffffffffffffffffffffffffffffff1673ffffffffffffffffffffffffffffffffffffffff16815260200160028201548152602001600382015481526020016004820160009054906101000a900460ff1615151515815260200160058201805461050390611683565b80601f016020809104026020016040519081016040528092919081815260200182805461052f90611683565b801561057c5780601f106105515761010080835404028352916020019161057c565b820191906000526020600020905b81548152906001019060200180831161055f57829003601f168201915b505050505081525050915050919050565b60008054906101000a900473ffffffffffffffffffffffffffffffffffffffff1673ffffffffffffffffffffffffffffffffffffffff163373ffffffffffffffffffffffffffffffffffffffff161461061b576040517f08c379a00000000000000000000000000000000000000000000000000000000081526004016106129061149a565b60405180910390fd5b6000600260008373ffffffffffffffffffffffffffffffffffffffff1673ffffffffffffffffffffffffffffffffffffffff1681526020019081526020016000209050600073ffffffffffffffffffffffffffffffffffffffff168160010160009054906101000a900473ffffffffffffffffffffffffffffffffffffffff1673ffffffffffffffffffffffffffffffffffffffff1614156106f2576040517f08c379a00000000000000000000000000000000000000000000000000000000081526004016106e9906114da565b60405180910390fd5b600260008373ffffffffffffffffffffffffffffffffffffffff1673ffffffffffffffffffffffffffffffffffffffff168152602001908152602001600020600080820160006107429190611004565b6001820160006101000a81549073ffffffffffffffffffffffffffffffffffffffff0219169055600282016000905560038201600090556004820160006101000a81549060ff021916905560058201600061079d9190611004565b5050600160008154809291906107b290611659565b91905055505050565b6000600260003373ffffffffffffffffffffffffffffffffffffffff1673ffffffffffffffffffffffffffffffffffffffff1681526020019081526020016000206040518060c001604052908160008201805461081790611683565b80601f016020809104026020016040519081016040528092919081815260200182805461084390611683565b80156108905780601f1061086557610100808354040283529160200191610890565b820191906000526020600020905b81548152906001019060200180831161087357829003601f168201915b505050505081526020016001820160009054906101000a900473ffffffffffffffffffffffffffffffffffffffff1673ffffffffffffffffffffffffffffffffffffffff1673ffffffffffffffffffffffffffffffffffffffff16815260200160028201548152602001600382015481526020016004820160009054906101000a900460ff1615151515815260200160058201805461092e90611683565b80601f016020809104026020016040519081016040528092919081815260200182805461095a90611683565b80156109a75780601f1061097c576101008083540402835291602001916109a7565b820191906000526020600020905b81548152906001019060200180831161098a57829003601f168201915b5050505050815250509050600073ffffffffffffffffffffffffffffffffffffffff16816020015173ffffffffffffffffffffffffffffffffffffffff16141580156109f4575080608001515b610a33576040517f08c379a0000000000000000000000000000000000000000000000000000000008152600401610a2a906114fa565b60405180910390fd5b6000600260008473ffffffffffffffffffffffffffffffffffffffff1673ffffffffffffffffffffffffffffffffffffffff1681526020019081526020016000209050600073ffffffffffffffffffffffffffffffffffffffff168160010160009054906101000a900473ffffffffffffffffffffffffffffffffffffffff1673ffffffffffffffffffffffffffffffffffffffff161415610b0a576040517f08c379a0000000000000000000000000000000000000000000000000000000008152600401610b01906114da565b60405180910390fd5b806002016000815480929190610b1f906116b5565b919050555060015460038260020154610b389190611584565b1115610b4a57610b49836000610ea0565b5b505050565b60008054906101000a900473ffffffffffffffffffffffffffffffffffffffff1673ffffffffffffffffffffffffffffffffffffffff163373ffffffffffffffffffffffffffffffffffffffff1614610bdd576040517f08c379a0000000000000000000000000000000000000000000000000000000008152600401610bd49061149a565b60405180910390fd5b6000600260008573ffffffffffffffffffffffffffffffffffffffff1673ffffffffffffffffffffffffffffffffffffffff1681526020019081526020016000209050600073ffffffffffffffffffffffffffffffffffffffff168160010160009054906101000a900473ffffffffffffffffffffffffffffffffffffffff1673ffffffffffffffffffffffffffffffffffffffff1614610cb3576040517f08c379a0000000000000000000000000000000000000000000000000000000008152600401610caa906114ba565b60405180910390fd5b6040518060c0016040528087878080601f016020809104026020016040519081016040528093929190818152602001838380828437600081840152601f19601f8201169050808301925050505050505081526020018573ffffffffffffffffffffffffffffffffffffffff168152602001600081526020016000815260200160011515815260200184848080601f016020809104026020016040519081016040528093929190818152602001838380828437600081840152601f19601f82011690508083019250505050505050815250600260008673ffffffffffffffffffffffffffffffffffffffff1673ffffffffffffffffffffffffffffffffffffffff1681526020019081526020016000206000820151816000019080519060200190610dde929190611044565b5060208201518160010160006101000a81548173ffffffffffffffffffffffffffffffffffffffff021916908373ffffffffffffffffffffffffffffffffffffffff160217905550604082015181600201556060820151816003015560808201518160040160006101000a81548160ff02191690831515021790555060a0820151816005019080519060200190610e76929190611044565b5090505060016000815480929190610e8d906116b5565b9190505550505050505050565b60015481565b6000600260008473ffffffffffffffffffffffffffffffffffffffff1673ffffffffffffffffffffffffffffffffffffffff1681526020019081526020016000209050600073ffffffffffffffffffffffffffffffffffffffff168160010160009054906101000a900473ffffffffffffffffffffffffffffffffffffffff1673ffffffffffffffffffffffffffffffffffffffff161415610f77576040517f08c379a0000000000000000000000000000000000000000000000000000000008152600401610f6e906114da565b60405180910390fd5b818160040160006101000a81548160ff02191690831515021790555081610fb15760016000815480929190610fab90611659565b91905055505b505050565b6040518060c0016040528060608152602001600073ffffffffffffffffffffffffffffffffffffffff1681526020016000815260200160008152602001600015158152602001606081525090565b50805461101090611683565b6000825580601f106110225750611041565b601f01602090049060005260206000209081019061104091906110ca565b5b50565b82805461105090611683565b90600052602060002090601f01602090048101928261107257600085556110b9565b82601f1061108b57805160ff19168380011785556110b9565b828001600101855582156110b9579182015b828111156110b857825182559160200191906001019061109d565b5b5090506110c691906110ca565b5090565b5b808211156110e35760008160009055506001016110cb565b5090565b6000813590506110f68161176d565b92915050565b60008135905061110b81611784565b92915050565b60008083601f84011261112357600080fd5b8235905067ffffffffffffffff81111561113c57600080fd5b60208301915083600182028301111561115457600080fd5b9250929050565b60006020828403121561116d57600080fd5b600061117b848285016110e7565b91505092915050565b6000806040838503121561119757600080fd5b60006111a5858286016110e7565b92505060206111b6858286016110fc565b9150509250929050565b6000806000806000606086880312156111d857600080fd5b600086013567ffffffffffffffff8111156111f257600080fd5b6111fe88828901611111565b95509550506020611211888289016110e7565b935050604086013567ffffffffffffffff81111561122e57600080fd5b61123a88828901611111565b92509250509295509295909350565b611252816115de565b82525050565b611261816115f0565b82525050565b600061127282611557565b61127c8185611562565b935061128c818560208601611626565b6112958161175c565b840191505092915050565b60006112ad602383611573565b91507f556e417574686f72697365642054726173616374696f6e2e2041646d696e204f60008301527f6e6c7900000000000000000000000000000000000000000000000000000000006020830152604082019050919050565b6000611313601283611573565b91507f42616e6b20657869737420616c726561647900000000000000000000000000006000830152602082019050919050565b6000611353601283611573565b91507f42616e6b20646f65736e277420657869737400000000000000000000000000006000830152602082019050919050565b6000611393602a83611573565b91507f556e417574686f7269736564205472616e73616374696f6e2e2041637469766560008301527f2042616e6b204f6e6c79000000000000000000000000000000000000000000006020830152604082019050919050565b600060c08301600083015184820360008601526114098282611267565b915050602083015161141e6020860182611249565b506040830151611431604086018261147c565b506060830151611444606086018261147c565b5060808301516114576080860182611258565b5060a083015184820360a086015261146f8282611267565b9150508091505092915050565b6114858161161c565b82525050565b6114948161161c565b82525050565b600060208201905081810360008301526114b3816112a0565b9050919050565b600060208201905081810360008301526114d381611306565b9050919050565b600060208201905081810360008301526114f381611346565b9050919050565b6000602082019050818103600083015261151381611386565b9050919050565b6000602082019050818103600083015261153481846113ec565b905092915050565b6000602082019050611551600083018461148b565b92915050565b600081519050919050565b600082825260208201905092915050565b600082825260208201905092915050565b600061158f8261161c565b915061159a8361161c565b9250817fffffffffffffffffffffffffffffffffffffffffffffffffffffffffffffffff04831182151516156115d3576115d26116fe565b5b828202905092915050565b60006115e9826115fc565b9050919050565b60008115159050919050565b600073ffffffffffffffffffffffffffffffffffffffff82169050919050565b6000819050919050565b60005b83811015611644578082015181840152602081019050611629565b83811115611653576000848401525b50505050565b60006116648261161c565b91506000821415611678576116776116fe565b5b600182039050919050565b6000600282049050600182168061169b57607f821691505b602082108114156116af576116ae61172d565b5b50919050565b60006116c08261161c565b91507fffffffffffffffffffffffffffffffffffffffffffffffffffffffffffffffff8214156116f3576116f26116fe565b5b600182019050919050565b7f4e487b7100000000000000000000000000000000000000000000000000000000600052601160045260246000fd5b7f4e487b7100000000000000000000000000000000000000000000000000000000600052602260045260246000fd5b6000601f19601f8301169050919050565b611776816115de565b811461178157600080fd5b50565b61178d816115f0565b811461179857600080fd5b5056fea26469706673582212207af8c038334580047581034e6480b7146c4d280fce3edeac326a911106d2799064736f6c63430008000033",
  "immutableReferences": {},
  "source": "pragma solidity 0.8.0;\n// SPDX-License-Identifier: MIT\n\n/// @title Admin\n/// @notice to handle the ADMIN Workflows\n/// @dev\n/// @author sedhu\ncontract Admin {\n    address private owner;\n\n    struct Bank{\n        string name;\n        address ethAddress; //  unique Ethereum address of the bank/organisation\n        uint256  complaintsReported; // number of complaints against this bank done by other banks in the network.\n        uint256 kycCount; // number of KYC requests initiated by the bank/organisation.\n        bool isAllowedToVote;\n        string regNumber; //   registration number for the bank.\n    }\n\n    uint256 public activeBanksCount = 0; // Count of Banks with Voting Rights set to true\n\n    mapping(address => Bank) internal banks;\n\n    constructor() {\n        owner = msg.sender;\n    }\n\n    /// @dev onwer of contract only\n    modifier onlyOwner {\n        require(msg.sender == owner, \"UnAuthorised Trasaction. Admin Only\");\n        _;\n    }\n\n    /// @dev only bank can access\n    modifier onlyBank {\n        require(banks[msg.sender].ethAddress != address(0), \"UnAuthorised Transaction. Bank Only\");\n        _;\n    }\n\n    /// @dev only bank with voting rights can access\n    modifier activeBank {\n        Bank memory _detail = banks[msg.sender];\n        require(_detail.ethAddress != address(0) && _detail.isAllowedToVote, \"UnAuthorised Transaction. Active Bank Only\");\n        _;\n    }\n\n\n    /// @notice gets bank complaints count\n    /// @dev\n    /// @param _bankAddress ethAddress of the bank\n    /// @return [uint] no of complaints\n    function getBankComplaints(address  _bankAddress) public view returns(uint256){\n        Bank storage detail = banks[_bankAddress];\n        require(detail.ethAddress != address(0), \"Bank doesn't exist\");\n        return detail.complaintsReported;\n    }\n\n    /// @notice to get the bank details\n    /// @dev\n    /// @param _bankAddress ethAddress of the bank\n    /// @return [Bank] object\n    function viewBankDetails(address _bankAddress) public view returns(Bank memory){\n        Bank storage detail = banks[_bankAddress];\n        require(detail.ethAddress != address(0), \"Bank doesn't exist\");\n        return detail;\n    }\n\n    /// @notice repoting suspicios banks\n    /// @dev\n    /// @param _bankAddress ethAddress of the bank\n    function reportBank(address  _bankAddress) public activeBank {\n        Bank storage detail = banks[_bankAddress];\n        require(detail.ethAddress != address(0), \"Bank doesn't exist\");\n        detail.complaintsReported++;\n        if(detail.complaintsReported * 3 > activeBanksCount){ // if 1/3 of the banks have reported a bank then revoke the rights\n            _changeVotingRights(_bankAddress, false);\n        }\n\n    }\n\n    /// @notice\n    /// @dev\n    /// @param _name bank name\n    /// @param _bankAddress ethAddress of the bank\n    /// @param _registrationNumber bank registration number\n    function addBank(string calldata _name, address _bankAddress, string calldata _registrationNumber) external onlyOwner {\n        Bank storage detail = banks[_bankAddress];\n        require(detail.ethAddress == address(0), \"Bank exist already\");\n        banks[_bankAddress] = Bank(_name,_bankAddress,0,0,true,_registrationNumber);\n        activeBanksCount++;\n    }\n\n    /// @notice\n    /// @dev\n    /// @param _bankAddress ethAddress of the bank\n    /// @param _isAllowedToVote toggle voting rights\n    function _changeVotingRights(address _bankAddress, bool _isAllowedToVote) private {\n        Bank storage detail = banks[_bankAddress];\n        require(detail.ethAddress != address(0), \"Bank doesn't exist\");\n        detail.isAllowedToVote = _isAllowedToVote;\n        if(!_isAllowedToVote){\n            activeBanksCount--;\n        }\n    }\n\n    /// @notice\n    /// @dev\n    /// @param _bankAddress ethAddress of the bank\n    /// @param _isAllowedToVote toggle voting rights of the bank\n    function toggleVote(address _bankAddress, bool _isAllowedToVote) external onlyOwner {\n        _changeVotingRights(_bankAddress,_isAllowedToVote);\n    }\n\n    /// @notice\n    /// @dev\n    /// @param _bankAddress ethAddress of the bank\n    function removeBank(address _bankAddress) external onlyOwner {\n        Bank storage detail = banks[_bankAddress];\n        require(detail.ethAddress != address(0), \"Bank doesn't exist\");\n        delete(banks[_bankAddress]);\n        activeBanksCount--;\n    }\n}\n",
  "sourcePath": "/Users/snallayan/Fun/blockchain-playground/phase3/KYC-SC/contracts/Admin.sol",
  "compiler": {
    "name": "solc",
    "version": "0.8.0+commit.c7dfd78e.Emscripten.clang"
  },
  "schemaVersion": "3.4.1",
  "updatedAt": "2021-06-09T08:53:25.227Z",
  "devdoc": {
    "details": "@author sedhu",
    "kind": "dev",
    "methods": {
      "addBank(string,address,string)": {
        "params": {
          "_bankAddress": "ethAddress of the bank",
          "_name": "bank name",
          "_registrationNumber": "bank registration number"
        }
      },
      "getBankComplaints(address)": {
        "details": "@param _bankAddress ethAddress of the bank",
        "returns": {
          "_0": "[uint] no of complaints"
        }
      },
      "removeBank(address)": {
        "params": {
          "_bankAddress": "ethAddress of the bank"
        }
      },
      "reportBank(address)": {
        "details": "@param _bankAddress ethAddress of the bank"
      },
      "toggleVote(address,bool)": {
        "params": {
          "_bankAddress": "ethAddress of the bank",
          "_isAllowedToVote": "toggle voting rights of the bank"
        }
      },
      "viewBankDetails(address)": {
        "details": "@param _bankAddress ethAddress of the bank",
        "returns": {
          "_0": "[Bank] object"
        }
      }
    },
    "title": "Admin",
    "version": 1
  },
  "userdoc": {
    "kind": "user",
    "methods": {
      "addBank(string,address,string)": {
        "notice": "@dev"
      },
      "getBankComplaints(address)": {
        "notice": "gets bank complaints count"
      },
      "removeBank(address)": {
        "notice": "@dev"
      },
      "reportBank(address)": {
        "notice": "repoting suspicios banks"
      },
      "toggleVote(address,bool)": {
        "notice": "@dev"
      },
      "viewBankDetails(address)": {
        "notice": "to get the bank details"
      }
    },
    "notice": "to handle the ADMIN Workflows",
    "version": 1
  }
}