{
  "contractName": "KYC",
  "abi": [
    {
      "inputs": [
        {
          "internalType": "string",
          "name": "_name",
          "type": "string"
        },
        {
          "internalType": "address",
          "name": "_bankAddress",
          "type": "address"
        },
        {
          "internalType": "string",
          "name": "_registrationNumber",
          "type": "string"
        }
      ],
      "name": "addBank",
      "outputs": [],
      "stateMutability": "nonpayable",
      "type": "function"
    },
    {
      "inputs": [
        {
          "internalType": "address",
          "name": "_bankAddress",
          "type": "address"
        }
      ],
      "name": "getBankComplaints",
      "outputs": [
        {
          "internalType": "uint256",
          "name": "",
          "type": "uint256"
        }
      ],
      "stateMutability": "view",
      "type": "function"
    },
    {
      "inputs": [
        {
          "internalType": "address",
          "name": "_bankAddress",
          "type": "address"
        }
      ],
      "name": "removeBank",
      "outputs": [],
      "stateMutability": "nonpayable",
      "type": "function"
    },
    {
      "inputs": [
        {
          "internalType": "address",
          "name": "_bankAddress",
          "type": "address"
        }
      ],
      "name": "reportBank",
      "outputs": [],
      "stateMutability": "nonpayable",
      "type": "function"
    },
    {
      "inputs": [
        {
          "internalType": "address",
          "name": "_bankAddress",
          "type": "address"
        },
        {
          "internalType": "bool",
          "name": "_isAllowedToVote",
          "type": "bool"
        }
      ],
      "name": "toggleVote",
      "outputs": [],
      "stateMutability": "nonpayable",
      "type": "function"
    },
    {
      "inputs": [
        {
          "internalType": "address",
          "name": "_bankAddress",
          "type": "address"
        }
      ],
      "name": "viewBankDetails",
      "outputs": [
        {
          "components": [
            {
              "internalType": "string",
              "name": "name",
              "type": "string"
            },
            {
              "internalType": "address",
              "name": "ethAddress",
              "type": "address"
            },
            {
              "internalType": "uint256",
              "name": "complaintsReported",
              "type": "uint256"
            },
            {
              "internalType": "uint256",
              "name": "kycCount",
              "type": "uint256"
            },
            {
              "internalType": "bool",
              "name": "isAllowedToVote",
              "type": "bool"
            },
            {
              "internalType": "string",
              "name": "regNumber",
              "type": "string"
            }
          ],
          "internalType": "struct Admin.Bank",
          "name": "",
          "type": "tuple"
        }
      ],
      "stateMutability": "view",
      "type": "function"
    },
    {
      "inputs": [
        {
          "internalType": "string",
          "name": "_customerName",
          "type": "string"
        },
        {
          "internalType": "string",
          "name": "_customerData",
          "type": "string"
        }
      ],
      "name": "addCustomer",
      "outputs": [],
      "stateMutability": "nonpayable",
      "type": "function"
    },
    {
      "inputs": [
        {
          "internalType": "string",
          "name": "_customerName",
          "type": "string"
        },
        {
          "internalType": "string",
          "name": "_customerData",
          "type": "string"
        }
      ],
      "name": "modifyCustomer",
      "outputs": [],
      "stateMutability": "nonpayable",
      "type": "function"
    },
    {
      "inputs": [
        {
          "internalType": "string",
          "name": "_customerName",
          "type": "string"
        }
      ],
      "name": "viewCustomer",
      "outputs": [
        {
          "internalType": "string",
          "name": "username",
          "type": "string"
        },
        {
          "internalType": "string",
          "name": "data",
          "type": "string"
        },
        {
          "internalType": "bool",
          "name": "kycStats",
          "type": "bool"
        },
        {
          "internalType": "uint256",
          "name": "downVotes",
          "type": "uint256"
        },
        {
          "internalType": "uint256",
          "name": "upVotes",
          "type": "uint256"
        },
        {
          "internalType": "address",
          "name": "bank",
          "type": "address"
        }
      ],
      "stateMutability": "view",
      "type": "function"
    },
    {
      "inputs": [
        {
          "internalType": "string",
          "name": "_customerName",
          "type": "string"
        }
      ],
      "name": "upvoteCustomer",
      "outputs": [],
      "stateMutability": "nonpayable",
      "type": "function"
    },
    {
      "inputs": [
        {
          "internalType": "string",
          "name": "_customerName",
          "type": "string"
        }
      ],
      "name": "downvoteCustomer",
      "outputs": [],
      "stateMutability": "nonpayable",
      "type": "function"
    },
    {
      "inputs": [
        {
          "internalType": "string",
          "name": "_customerName",
          "type": "string"
        },
        {
          "internalType": "string",
          "name": "_dataHash",
          "type": "string"
        }
      ],
      "name": "addRequest",
      "outputs": [],
      "stateMutability": "nonpayable",
      "type": "function"
    },
    {
      "inputs": [
        {
          "internalType": "string",
          "name": "_customerName",
          "type": "string"
        }
      ],
      "name": "removeRequest",
      "outputs": [],
      "stateMutability": "nonpayable",
      "type": "function"
    }
  ],
  "bytecode": "0x6080604052600060015534801561001557600080fd5b50336000806101000a81548173ffffffffffffffffffffffffffffffffffffffff021916908373ffffffffffffffffffffffffffffffffffffffff160217905550613be1806100656000396000f3fe608060405234801561001057600080fd5b50600436106100cf5760003560e01c806388cc8d8d1161008c578063b9da4af811610066578063b9da4af814610211578063ccfa8e711461022d578063f2f4ed8f14610249578063f72860ca14610265576100cf565b806388cc8d8d146101a95780639649650c146101d9578063a5a49800146101f5576100cf565b8063107925bb146100d45780633190abc0146101095780635ec2a7f2146101255780636cba00e6146101555780637b49753d146101715780637d38d7111461018d575b600080fd5b6100ee60048036038101906100e991906131b0565b610281565b604051610100969594939291906136f1565b60405180910390f35b610123600480360381019061011e91906131f1565b6105da565b005b61013f600480360381019061013a9190613008565b610a25565b60405161014c91906138a2565b60405180910390f35b61016f600480360381019061016a919061306d565b610b0a565b005b61018b60048036038101906101869190613031565b610d77565b005b6101a760048036038101906101a291906131b0565b610e13565b005b6101c360048036038101906101be9190613008565b611169565b6040516101d09190613880565b60405180910390f35b6101f360048036038101906101ee9190613008565b611405565b005b61020f600480360381019061020a9190613008565b611633565b005b61022b6004803603810190610226919061313b565b6119c7565b005b610247600480360381019061024291906130b2565b612038565b005b610263600480360381019061025e91906131b0565b612383565b005b61027f600480360381019061027a91906131f1565b6126d9565b005b606080600080600080600073ffffffffffffffffffffffffffffffffffffffff16600260003373ffffffffffffffffffffffffffffffffffffffff1673ffffffffffffffffffffffffffffffffffffffff16815260200190815260200160002060010160009054906101000a900473ffffffffffffffffffffffffffffffffffffffff1673ffffffffffffffffffffffffffffffffffffffff16141561035c576040517f08c379a0000000000000000000000000000000000000000000000000000000008152600401610353906137a0565b60405180910390fd5b600060038860405161036e91906136da565b90815260200160405180910390206040518060c001604052908160008201805461039790613a64565b80601f01602080910402602001604051908101604052809291908181526020018280546103c390613a64565b80156104105780601f106103e557610100808354040283529160200191610410565b820191906000526020600020905b8154815290600101906020018083116103f357829003601f168201915b5050505050815260200160018201805461042990613a64565b80601f016020809104026020016040519081016040528092919081815260200182805461045590613a64565b80156104a25780601f10610477576101008083540402835291602001916104a2565b820191906000526020600020905b81548152906001019060200180831161048557829003601f168201915b505050505081526020016002820160009054906101000a900460ff1615151515815260200160038201548152602001600482015481526020016005820160009054906101000a900473ffffffffffffffffffffffffffffffffffffffff1673ffffffffffffffffffffffffffffffffffffffff1673ffffffffffffffffffffffffffffffffffffffff16815250509050600073ffffffffffffffffffffffffffffffffffffffff168160a0015173ffffffffffffffffffffffffffffffffffffffff1614156105a6576040517f08c379a000000000000000000000000000000000000000000000000000000000815260040161059d90613840565b60405180910390fd5b806000015181602001518260400151836060015184608001518560a001519650965096509650965096505091939550919395565b6000600260003373ffffffffffffffffffffffffffffffffffffffff1673ffffffffffffffffffffffffffffffffffffffff1681526020019081526020016000206040518060c001604052908160008201805461063690613a64565b80601f016020809104026020016040519081016040528092919081815260200182805461066290613a64565b80156106af5780601f10610684576101008083540402835291602001916106af565b820191906000526020600020905b81548152906001019060200180831161069257829003601f168201915b505050505081526020016001820160009054906101000a900473ffffffffffffffffffffffffffffffffffffffff1673ffffffffffffffffffffffffffffffffffffffff1673ffffffffffffffffffffffffffffffffffffffff16815260200160028201548152602001600382015481526020016004820160009054906101000a900460ff1615151515815260200160058201805461074d90613a64565b80601f016020809104026020016040519081016040528092919081815260200182805461077990613a64565b80156107c65780601f1061079b576101008083540402835291602001916107c6565b820191906000526020600020905b8154815290600101906020018083116107a957829003601f168201915b5050505050815250509050600073ffffffffffffffffffffffffffffffffffffffff16816020015173ffffffffffffffffffffffffffffffffffffffff1614158015610813575080608001515b610852576040517f08c379a000000000000000000000000000000000000000000000000000000000815260040161084990613800565b60405180910390fd5b600073ffffffffffffffffffffffffffffffffffffffff1660038460405161087a91906136da565b908152602001604051809103902060050160009054906101000a900473ffffffffffffffffffffffffffffffffffffffff1673ffffffffffffffffffffffffffffffffffffffff1614610902576040517f08c379a00000000000000000000000000000000000000000000000000000000081526004016108f990613820565b60405180910390fd5b6040518060c0016040528084815260200183815260200160001515815260200160008152602001600081526020013373ffffffffffffffffffffffffffffffffffffffff1681525060038460405161095a91906136da565b90815260200160405180910390206000820151816000019080519060200190610984929190612dfb565b5060208201518160010190805190602001906109a1929190612dfb565b5060408201518160020160006101000a81548160ff021916908315150217905550606082015181600301556080820151816004015560a08201518160050160006101000a81548173ffffffffffffffffffffffffffffffffffffffff021916908373ffffffffffffffffffffffffffffffffffffffff160217905550905050505050565b600080600260008473ffffffffffffffffffffffffffffffffffffffff1673ffffffffffffffffffffffffffffffffffffffff1681526020019081526020016000209050600073ffffffffffffffffffffffffffffffffffffffff168160010160009054906101000a900473ffffffffffffffffffffffffffffffffffffffff1673ffffffffffffffffffffffffffffffffffffffff161415610afd576040517f08c379a0000000000000000000000000000000000000000000000000000000008152600401610af4906137c0565b60405180910390fd5b8060020154915050919050565b600073ffffffffffffffffffffffffffffffffffffffff16600260003373ffffffffffffffffffffffffffffffffffffffff1673ffffffffffffffffffffffffffffffffffffffff16815260200190815260200160002060010160009054906101000a900473ffffffffffffffffffffffffffffffffffffffff1673ffffffffffffffffffffffffffffffffffffffff161415610bdc576040517f08c379a0000000000000000000000000000000000000000000000000000000008152600401610bd3906137a0565b60405180910390fd5b600073ffffffffffffffffffffffffffffffffffffffff16600460003373ffffffffffffffffffffffffffffffffffffffff1673ffffffffffffffffffffffffffffffffffffffff1681526020019081526020016000208383604051610c439291906136c1565b908152602001604051809103902060010160009054906101000a900473ffffffffffffffffffffffffffffffffffffffff1673ffffffffffffffffffffffffffffffffffffffff161415610ccc576040517f08c379a0000000000000000000000000000000000000000000000000000000008152600401610cc3906137e0565b60405180910390fd5b600460003373ffffffffffffffffffffffffffffffffffffffff1673ffffffffffffffffffffffffffffffffffffffff1681526020019081526020016000208282604051610d1b9291906136c1565b908152602001604051809103902060008082016000610d3a9190612e81565b6001820160006101000a81549073ffffffffffffffffffffffffffffffffffffffff0219169055600282016000610d719190612e81565b50505050565b60008054906101000a900473ffffffffffffffffffffffffffffffffffffffff1673ffffffffffffffffffffffffffffffffffffffff163373ffffffffffffffffffffffffffffffffffffffff1614610e05576040517f08c379a0000000000000000000000000000000000000000000000000000000008152600401610dfc90613760565b60405180910390fd5b610e0f8282612a26565b5050565b6000600260003373ffffffffffffffffffffffffffffffffffffffff1673ffffffffffffffffffffffffffffffffffffffff1681526020019081526020016000206040518060c0016040529081600082018054610e6f90613a64565b80601f0160208091040260200160405190810160405280929190818152602001828054610e9b90613a64565b8015610ee85780601f10610ebd57610100808354040283529160200191610ee8565b820191906000526020600020905b815481529060010190602001808311610ecb57829003601f168201915b505050505081526020016001820160009054906101000a900473ffffffffffffffffffffffffffffffffffffffff1673ffffffffffffffffffffffffffffffffffffffff1673ffffffffffffffffffffffffffffffffffffffff16815260200160028201548152602001600382015481526020016004820160009054906101000a900460ff16151515158152602001600582018054610f8690613a64565b80601f0160208091040260200160405190810160405280929190818152602001828054610fb290613a64565b8015610fff5780601f10610fd457610100808354040283529160200191610fff565b820191906000526020600020905b815481529060010190602001808311610fe257829003601f168201915b5050505050815250509050600073ffffffffffffffffffffffffffffffffffffffff16816020015173ffffffffffffffffffffffffffffffffffffffff161415801561104c575080608001515b61108b576040517f08c379a000000000000000000000000000000000000000000000000000000000815260040161108290613800565b60405180910390fd5b600060038360405161109d91906136da565b90815260200160405180910390209050600073ffffffffffffffffffffffffffffffffffffffff168160050160009054906101000a900473ffffffffffffffffffffffffffffffffffffffff1673ffffffffffffffffffffffffffffffffffffffff161415611141576040517f08c379a000000000000000000000000000000000000000000000000000000000815260040161113890613840565b60405180910390fd5b80600301600081548092919061115690613a96565b919050555061116481612b3c565b505050565b611171612ec1565b6000600260008473ffffffffffffffffffffffffffffffffffffffff1673ffffffffffffffffffffffffffffffffffffffff1681526020019081526020016000209050600073ffffffffffffffffffffffffffffffffffffffff168160010160009054906101000a900473ffffffffffffffffffffffffffffffffffffffff1673ffffffffffffffffffffffffffffffffffffffff161415611248576040517f08c379a000000000000000000000000000000000000000000000000000000000815260040161123f906137c0565b60405180910390fd5b806040518060c001604052908160008201805461126490613a64565b80601f016020809104026020016040519081016040528092919081815260200182805461129090613a64565b80156112dd5780601f106112b2576101008083540402835291602001916112dd565b820191906000526020600020905b8154815290600101906020018083116112c057829003601f168201915b505050505081526020016001820160009054906101000a900473ffffffffffffffffffffffffffffffffffffffff1673ffffffffffffffffffffffffffffffffffffffff1673ffffffffffffffffffffffffffffffffffffffff16815260200160028201548152602001600382015481526020016004820160009054906101000a900460ff1615151515815260200160058201805461137b90613a64565b80601f01602080910402602001604051908101604052809291908181526020018280546113a790613a64565b80156113f45780601f106113c9576101008083540402835291602001916113f4565b820191906000526020600020905b8154815290600101906020018083116113d757829003601f168201915b505050505081525050915050919050565b60008054906101000a900473ffffffffffffffffffffffffffffffffffffffff1673ffffffffffffffffffffffffffffffffffffffff163373ffffffffffffffffffffffffffffffffffffffff1614611493576040517f08c379a000000000000000000000000000000000000000000000000000000000815260040161148a90613760565b60405180910390fd5b6000600260008373ffffffffffffffffffffffffffffffffffffffff1673ffffffffffffffffffffffffffffffffffffffff1681526020019081526020016000209050600073ffffffffffffffffffffffffffffffffffffffff168160010160009054906101000a900473ffffffffffffffffffffffffffffffffffffffff1673ffffffffffffffffffffffffffffffffffffffff16141561156a576040517f08c379a0000000000000000000000000000000000000000000000000000000008152600401611561906137c0565b60405180910390fd5b600260008373ffffffffffffffffffffffffffffffffffffffff1673ffffffffffffffffffffffffffffffffffffffff168152602001908152602001600020600080820160006115ba9190612e81565b6001820160006101000a81549073ffffffffffffffffffffffffffffffffffffffff0219169055600282016000905560038201600090556004820160006101000a81549060ff02191690556005820160006116159190612e81565b50506001600081548092919061162a90613a3a565b91905055505050565b6000600260003373ffffffffffffffffffffffffffffffffffffffff1673ffffffffffffffffffffffffffffffffffffffff1681526020019081526020016000206040518060c001604052908160008201805461168f90613a64565b80601f01602080910402602001604051908101604052809291908181526020018280546116bb90613a64565b80156117085780601f106116dd57610100808354040283529160200191611708565b820191906000526020600020905b8154815290600101906020018083116116eb57829003601f168201915b505050505081526020016001820160009054906101000a900473ffffffffffffffffffffffffffffffffffffffff1673ffffffffffffffffffffffffffffffffffffffff1673ffffffffffffffffffffffffffffffffffffffff16815260200160028201548152602001600382015481526020016004820160009054906101000a900460ff161515151581526020016005820180546117a690613a64565b80601f01602080910402602001604051908101604052809291908181526020018280546117d290613a64565b801561181f5780601f106117f45761010080835404028352916020019161181f565b820191906000526020600020905b81548152906001019060200180831161180257829003601f168201915b5050505050815250509050600073ffffffffffffffffffffffffffffffffffffffff16816020015173ffffffffffffffffffffffffffffffffffffffff161415801561186c575080608001515b6118ab576040517f08c379a00000000000000000000000000000000000000000000000000000000081526004016118a290613800565b60405180910390fd5b6000600260008473ffffffffffffffffffffffffffffffffffffffff1673ffffffffffffffffffffffffffffffffffffffff1681526020019081526020016000209050600073ffffffffffffffffffffffffffffffffffffffff168160010160009054906101000a900473ffffffffffffffffffffffffffffffffffffffff1673ffffffffffffffffffffffffffffffffffffffff161415611982576040517f08c379a0000000000000000000000000000000000000000000000000000000008152600401611979906137c0565b60405180910390fd5b80600201600081548092919061199790613a96565b9190505550600154600382600201546119b09190613956565b11156119c2576119c1836000612a26565b5b505050565b6000600260003373ffffffffffffffffffffffffffffffffffffffff1673ffffffffffffffffffffffffffffffffffffffff1681526020019081526020016000206040518060c0016040529081600082018054611a2390613a64565b80601f0160208091040260200160405190810160405280929190818152602001828054611a4f90613a64565b8015611a9c5780601f10611a7157610100808354040283529160200191611a9c565b820191906000526020600020905b815481529060010190602001808311611a7f57829003601f168201915b505050505081526020016001820160009054906101000a900473ffffffffffffffffffffffffffffffffffffffff1673ffffffffffffffffffffffffffffffffffffffff1673ffffffffffffffffffffffffffffffffffffffff16815260200160028201548152602001600382015481526020016004820160009054906101000a900460ff16151515158152602001600582018054611b3a90613a64565b80601f0160208091040260200160405190810160405280929190818152602001828054611b6690613a64565b8015611bb35780601f10611b8857610100808354040283529160200191611bb3565b820191906000526020600020905b815481529060010190602001808311611b9657829003601f168201915b5050505050815250509050600073ffffffffffffffffffffffffffffffffffffffff16816020015173ffffffffffffffffffffffffffffffffffffffff1614158015611c00575080608001515b611c3f576040517f08c379a0000000000000000000000000000000000000000000000000000000008152600401611c3690613800565b60405180910390fd5b600060038686604051611c539291906136c1565b90815260200160405180910390209050600073ffffffffffffffffffffffffffffffffffffffff168160050160009054906101000a900473ffffffffffffffffffffffffffffffffffffffff1673ffffffffffffffffffffffffffffffffffffffff161415611d4f57611d4e86868080601f016020809104026020016040519081016040528093929190818152602001838380828437600081840152601f19601f8201169050808301925050505050505085858080601f016020809104026020016040519081016040528093929190818152602001838380828437600081840152601f19601f820116905080830192505050505050506105da565b5b600073ffffffffffffffffffffffffffffffffffffffff16600460003373ffffffffffffffffffffffffffffffffffffffff1673ffffffffffffffffffffffffffffffffffffffff1681526020019081526020016000208787604051611db69291906136c1565b908152602001604051809103902060010160009054906101000a900473ffffffffffffffffffffffffffffffffffffffff1673ffffffffffffffffffffffffffffffffffffffff1614611e3e576040517f08c379a0000000000000000000000000000000000000000000000000000000008152600401611e3590613860565b60405180910390fd5b604051806060016040528087878080601f016020809104026020016040519081016040528093929190818152602001838380828437600081840152601f19601f8201169050808301925050505050505081526020013373ffffffffffffffffffffffffffffffffffffffff16815260200185858080601f016020809104026020016040519081016040528093929190818152602001838380828437600081840152601f19601f82011690508083019250505050505050815250600460003373ffffffffffffffffffffffffffffffffffffffff1673ffffffffffffffffffffffffffffffffffffffff1681526020019081526020016000208787604051611f469291906136c1565b90815260200160405180910390206000820151816000019080519060200190611f70929190612dfb565b5060208201518160010160006101000a81548173ffffffffffffffffffffffffffffffffffffffff021916908373ffffffffffffffffffffffffffffffffffffffff1602179055506040820151816002019080519060200190611fd4929190612dfb565b50905050600260003373ffffffffffffffffffffffffffffffffffffffff1673ffffffffffffffffffffffffffffffffffffffff168152602001908152602001600020600301600081548092919061202b90613a96565b9190505550505050505050565b60008054906101000a900473ffffffffffffffffffffffffffffffffffffffff1673ffffffffffffffffffffffffffffffffffffffff163373ffffffffffffffffffffffffffffffffffffffff16146120c6576040517f08c379a00000000000000000000000000000000000000000000000000000000081526004016120bd90613760565b60405180910390fd5b6000600260008573ffffffffffffffffffffffffffffffffffffffff1673ffffffffffffffffffffffffffffffffffffffff1681526020019081526020016000209050600073ffffffffffffffffffffffffffffffffffffffff168160010160009054906101000a900473ffffffffffffffffffffffffffffffffffffffff1673ffffffffffffffffffffffffffffffffffffffff161461219c576040517f08c379a000000000000000000000000000000000000000000000000000000000815260040161219390613780565b60405180910390fd5b6040518060c0016040528087878080601f016020809104026020016040519081016040528093929190818152602001838380828437600081840152601f19601f8201169050808301925050505050505081526020018573ffffffffffffffffffffffffffffffffffffffff168152602001600081526020016000815260200160011515815260200184848080601f016020809104026020016040519081016040528093929190818152602001838380828437600081840152601f19601f82011690508083019250505050505050815250600260008673ffffffffffffffffffffffffffffffffffffffff1673ffffffffffffffffffffffffffffffffffffffff16815260200190815260200160002060008201518160000190805190602001906122c7929190612dfb565b5060208201518160010160006101000a81548173ffffffffffffffffffffffffffffffffffffffff021916908373ffffffffffffffffffffffffffffffffffffffff160217905550604082015181600201556060820151816003015560808201518160040160006101000a81548160ff02191690831515021790555060a082015181600501908051906020019061235f929190612dfb565b509050506001600081548092919061237690613a96565b9190505550505050505050565b6000600260003373ffffffffffffffffffffffffffffffffffffffff1673ffffffffffffffffffffffffffffffffffffffff1681526020019081526020016000206040518060c00160405290816000820180546123df90613a64565b80601f016020809104026020016040519081016040528092919081815260200182805461240b90613a64565b80156124585780601f1061242d57610100808354040283529160200191612458565b820191906000526020600020905b81548152906001019060200180831161243b57829003601f168201915b505050505081526020016001820160009054906101000a900473ffffffffffffffffffffffffffffffffffffffff1673ffffffffffffffffffffffffffffffffffffffff1673ffffffffffffffffffffffffffffffffffffffff16815260200160028201548152602001600382015481526020016004820160009054906101000a900460ff161515151581526020016005820180546124f690613a64565b80601f016020809104026020016040519081016040528092919081815260200182805461252290613a64565b801561256f5780601f106125445761010080835404028352916020019161256f565b820191906000526020600020905b81548152906001019060200180831161255257829003601f168201915b5050505050815250509050600073ffffffffffffffffffffffffffffffffffffffff16816020015173ffffffffffffffffffffffffffffffffffffffff16141580156125bc575080608001515b6125fb576040517f08c379a00000000000000000000000000000000000000000000000000000000081526004016125f290613800565b60405180910390fd5b600060038360405161260d91906136da565b90815260200160405180910390209050600073ffffffffffffffffffffffffffffffffffffffff168160050160009054906101000a900473ffffffffffffffffffffffffffffffffffffffff1673ffffffffffffffffffffffffffffffffffffffff1614156126b1576040517f08c379a00000000000000000000000000000000000000000000000000000000081526004016126a890613840565b60405180910390fd5b8060040160008154809291906126c690613a96565b91905055506126d481612b3c565b505050565b6000600260003373ffffffffffffffffffffffffffffffffffffffff1673ffffffffffffffffffffffffffffffffffffffff1681526020019081526020016000206040518060c001604052908160008201805461273590613a64565b80601f016020809104026020016040519081016040528092919081815260200182805461276190613a64565b80156127ae5780601f10612783576101008083540402835291602001916127ae565b820191906000526020600020905b81548152906001019060200180831161279157829003601f168201915b505050505081526020016001820160009054906101000a900473ffffffffffffffffffffffffffffffffffffffff1673ffffffffffffffffffffffffffffffffffffffff1673ffffffffffffffffffffffffffffffffffffffff16815260200160028201548152602001600382015481526020016004820160009054906101000a900460ff1615151515815260200160058201805461284c90613a64565b80601f016020809104026020016040519081016040528092919081815260200182805461287890613a64565b80156128c55780601f1061289a576101008083540402835291602001916128c5565b820191906000526020600020905b8154815290600101906020018083116128a857829003601f168201915b5050505050815250509050600073ffffffffffffffffffffffffffffffffffffffff16816020015173ffffffffffffffffffffffffffffffffffffffff1614158015612912575080608001515b612951576040517f08c379a000000000000000000000000000000000000000000000000000000000815260040161294890613800565b60405180910390fd5b600060038460405161296391906136da565b90815260200160405180910390209050600073ffffffffffffffffffffffffffffffffffffffff168160050160009054906101000a900473ffffffffffffffffffffffffffffffffffffffff1673ffffffffffffffffffffffffffffffffffffffff161415612a07576040517f08c379a00000000000000000000000000000000000000000000000000000000081526004016129fe90613840565b60405180910390fd5b82816001019080519060200190612a1f929190612dfb565b5050505050565b6000600260008473ffffffffffffffffffffffffffffffffffffffff1673ffffffffffffffffffffffffffffffffffffffff1681526020019081526020016000209050600073ffffffffffffffffffffffffffffffffffffffff168160010160009054906101000a900473ffffffffffffffffffffffffffffffffffffffff1673ffffffffffffffffffffffffffffffffffffffff161415612afd576040517f08c379a0000000000000000000000000000000000000000000000000000000008152600401612af4906137c0565b60405180910390fd5b818160040160006101000a81548160ff02191690831515021790555081612b375760016000815480929190612b3190613a3a565b91905055505b505050565b6000600260003373ffffffffffffffffffffffffffffffffffffffff1673ffffffffffffffffffffffffffffffffffffffff1681526020019081526020016000206040518060c0016040529081600082018054612b9890613a64565b80601f0160208091040260200160405190810160405280929190818152602001828054612bc490613a64565b8015612c115780601f10612be657610100808354040283529160200191612c11565b820191906000526020600020905b815481529060010190602001808311612bf457829003601f168201915b505050505081526020016001820160009054906101000a900473ffffffffffffffffffffffffffffffffffffffff1673ffffffffffffffffffffffffffffffffffffffff1673ffffffffffffffffffffffffffffffffffffffff16815260200160028201548152602001600382015481526020016004820160009054906101000a900460ff16151515158152602001600582018054612caf90613a64565b80601f0160208091040260200160405190810160405280929190818152602001828054612cdb90613a64565b8015612d285780601f10612cfd57610100808354040283529160200191612d28565b820191906000526020600020905b815481529060010190602001808311612d0b57829003601f168201915b5050505050815250509050600073ffffffffffffffffffffffffffffffffffffffff16816020015173ffffffffffffffffffffffffffffffffffffffff1614158015612d75575080608001515b612db4576040517f08c379a0000000000000000000000000000000000000000000000000000000008152600401612dab90613800565b60405180910390fd5b81600301548260040154118015612ddc575060015460038360030154612dda9190613956565b105b8260020160006101000a81548160ff0219169083151502179055505050565b828054612e0790613a64565b90600052602060002090601f016020900481019282612e295760008555612e70565b82601f10612e4257805160ff1916838001178555612e70565b82800160010185558215612e70579182015b82811115612e6f578251825591602001919060010190612e54565b5b509050612e7d9190612f0f565b5090565b508054612e8d90613a64565b6000825580601f10612e9f5750612ebe565b601f016020900490600052602060002090810190612ebd9190612f0f565b5b50565b6040518060c0016040528060608152602001600073ffffffffffffffffffffffffffffffffffffffff1681526020016000815260200160008152602001600015158152602001606081525090565b5b80821115612f28576000816000905550600101612f10565b5090565b6000612f3f612f3a846138ee565b6138bd565b905082815260208101848484011115612f5757600080fd5b612f628482856139f8565b509392505050565b600081359050612f7981613b7d565b92915050565b600081359050612f8e81613b94565b92915050565b60008083601f840112612fa657600080fd5b8235905067ffffffffffffffff811115612fbf57600080fd5b602083019150836001820283011115612fd757600080fd5b9250929050565b600082601f830112612fef57600080fd5b8135612fff848260208601612f2c565b91505092915050565b60006020828403121561301a57600080fd5b600061302884828501612f6a565b91505092915050565b6000806040838503121561304457600080fd5b600061305285828601612f6a565b925050602061306385828601612f7f565b9150509250929050565b6000806020838503121561308057600080fd5b600083013567ffffffffffffffff81111561309a57600080fd5b6130a685828601612f94565b92509250509250929050565b6000806000806000606086880312156130ca57600080fd5b600086013567ffffffffffffffff8111156130e457600080fd5b6130f088828901612f94565b9550955050602061310388828901612f6a565b935050604086013567ffffffffffffffff81111561312057600080fd5b61312c88828901612f94565b92509250509295509295909350565b6000806000806040858703121561315157600080fd5b600085013567ffffffffffffffff81111561316b57600080fd5b61317787828801612f94565b9450945050602085013567ffffffffffffffff81111561319657600080fd5b6131a287828801612f94565b925092505092959194509250565b6000602082840312156131c257600080fd5b600082013567ffffffffffffffff8111156131dc57600080fd5b6131e884828501612fde565b91505092915050565b6000806040838503121561320457600080fd5b600083013567ffffffffffffffff81111561321e57600080fd5b61322a85828601612fde565b925050602083013567ffffffffffffffff81111561324757600080fd5b61325385828601612fde565b9150509250929050565b613266816139b0565b82525050565b613275816139b0565b82525050565b613284816139c2565b82525050565b613293816139c2565b82525050565b60006132a5838561394b565b93506132b28385846139f8565b82840190509392505050565b60006132c98261391e565b6132d38185613929565b93506132e3818560208601613a07565b6132ec81613b6c565b840191505092915050565b60006133028261391e565b61330c818561393a565b935061331c818560208601613a07565b61332581613b6c565b840191505092915050565b600061333b8261391e565b613345818561394b565b9350613355818560208601613a07565b80840191505092915050565b600061336e60238361393a565b91507f556e417574686f72697365642054726173616374696f6e2e2041646d696e204f60008301527f6e6c7900000000000000000000000000000000000000000000000000000000006020830152604082019050919050565b60006133d460128361393a565b91507f42616e6b20657869737420616c726561647900000000000000000000000000006000830152602082019050919050565b600061341460238361393a565b91507f556e417574686f7269736564205472616e73616374696f6e2e2042616e6b204f60008301527f6e6c7900000000000000000000000000000000000000000000000000000000006020830152604082019050919050565b600061347a60128361393a565b91507f42616e6b20646f65736e277420657869737400000000000000000000000000006000830152602082019050919050565b60006134ba60158361393a565b91507f52657175657374206e6f7420617661696c61626c6500000000000000000000006000830152602082019050919050565b60006134fa602a8361393a565b91507f556e417574686f7269736564205472616e73616374696f6e2e2041637469766560008301527f2042616e6b204f6e6c79000000000000000000000000000000000000000000006020830152604082019050919050565b600061356060168361393a565b91507f437573746f6d657220657869737420616c7265616479000000000000000000006000830152602082019050919050565b60006135a060168361393a565b91507f437573746f6d657220646f65736e2774206578697374000000000000000000006000830152602082019050919050565b60006135e060158361393a565b91507f5265717565737420457869737420416c726561647900000000000000000000006000830152602082019050919050565b600060c083016000830151848203600086015261363082826132be565b9150506020830151613645602086018261325d565b50604083015161365860408601826136a3565b50606083015161366b60608601826136a3565b50608083015161367e608086018261327b565b5060a083015184820360a086015261369682826132be565b9150508091505092915050565b6136ac816139ee565b82525050565b6136bb816139ee565b82525050565b60006136ce828486613299565b91508190509392505050565b60006136e68284613330565b915081905092915050565b600060c082019050818103600083015261370b81896132f7565b9050818103602083015261371f81886132f7565b905061372e604083018761328a565b61373b60608301866136b2565b61374860808301856136b2565b61375560a083018461326c565b979650505050505050565b6000602082019050818103600083015261377981613361565b9050919050565b60006020820190508181036000830152613799816133c7565b9050919050565b600060208201905081810360008301526137b981613407565b9050919050565b600060208201905081810360008301526137d98161346d565b9050919050565b600060208201905081810360008301526137f9816134ad565b9050919050565b60006020820190508181036000830152613819816134ed565b9050919050565b6000602082019050818103600083015261383981613553565b9050919050565b6000602082019050818103600083015261385981613593565b9050919050565b60006020820190508181036000830152613879816135d3565b9050919050565b6000602082019050818103600083015261389a8184613613565b905092915050565b60006020820190506138b760008301846136b2565b92915050565b6000604051905081810181811067ffffffffffffffff821117156138e4576138e3613b3d565b5b8060405250919050565b600067ffffffffffffffff82111561390957613908613b3d565b5b601f19601f8301169050602081019050919050565b600081519050919050565b600082825260208201905092915050565b600082825260208201905092915050565b600081905092915050565b6000613961826139ee565b915061396c836139ee565b9250817fffffffffffffffffffffffffffffffffffffffffffffffffffffffffffffffff04831182151516156139a5576139a4613adf565b5b828202905092915050565b60006139bb826139ce565b9050919050565b60008115159050919050565b600073ffffffffffffffffffffffffffffffffffffffff82169050919050565b6000819050919050565b82818337600083830152505050565b60005b83811015613a25578082015181840152602081019050613a0a565b83811115613a34576000848401525b50505050565b6000613a45826139ee565b91506000821415613a5957613a58613adf565b5b600182039050919050565b60006002820490506001821680613a7c57607f821691505b60208210811415613a9057613a8f613b0e565b5b50919050565b6000613aa1826139ee565b91507fffffffffffffffffffffffffffffffffffffffffffffffffffffffffffffffff821415613ad457613ad3613adf565b5b600182019050919050565b7f4e487b7100000000000000000000000000000000000000000000000000000000600052601160045260246000fd5b7f4e487b7100000000000000000000000000000000000000000000000000000000600052602260045260246000fd5b7f4e487b7100000000000000000000000000000000000000000000000000000000600052604160045260246000fd5b6000601f19601f8301169050919050565b613b86816139b0565b8114613b9157600080fd5b50565b613b9d816139c2565b8114613ba857600080fd5b5056fea2646970667358221220892ef1ab1637db9b491dad01179742e0792c40c092d2e9dd216e88a63eb6541b64736f6c63430008000033",
  "immutableReferences": {},
  "source": "pragma solidity 0.8.0;\n// SPDX-License-Identifier: MIT\nimport \"./Admin.sol\";\n\ncontract KYC is Admin {\n    struct Customer{\n        string username; // unique username , primary identifier\n        string data; // idenities of the customer\n        bool kycStatus; // If the number of upvotes/downvotes meet the required conditions, set kycStatus to true; otherwise, set it to false.\n        uint256 downVotes;\n        uint256 upVotes;\n        address bank; // validated bank\n    }\n\n\n    struct KYCRequest{\n        string username;\n        address bankAddress;\n        string customerData;\n    }\n\n\n    mapping(string => Customer) private customers;\n    mapping(address => mapping(string => KYCRequest)) private bankCustomerKYCRequestsMap;\n\n\n    function addCustomer(string memory _customerName, string memory _customerData) public activeBank {\n        require(customers[_customerName].bank == address(0), \"Customer exist already\");\n        customers[_customerName] = Customer(_customerName, _customerData,false,0,0, msg.sender);\n\n    }\n\n    function modifyCustomer(string memory _customerName, string memory _customerData) public activeBank {\n        Customer storage detail = customers[_customerName];\n        require(detail.bank != address(0), \"Customer doesn't exist\");\n        detail.data = _customerData;\n    }\n\n    function viewCustomer(string memory _customerName) public view onlyBank returns( string memory username,\n        string memory data,\n        bool kycStats,\n        uint256 downVotes,\n        uint256 upVotes,\n        address bank)\n    {\n        Customer memory detail = customers[_customerName];\n        require(detail.bank != address(0), \"Customer doesn't exist\");\n        return (detail.username, detail.data, detail.kycStatus, detail.downVotes, detail.upVotes, detail.bank);\n    }\n\n    function _checkCustomerKYCConditions(Customer storage _customer) private activeBank {\n        _customer.kycStatus = _customer.upVotes > _customer.downVotes && (_customer.downVotes * 3 < activeBanksCount);\n    }\n\n    function upvoteCustomer(string memory _customerName) public activeBank {\n        Customer storage detail = customers[_customerName];\n        require(detail.bank != address(0), \"Customer doesn't exist\");\n        detail.upVotes++;\n        _checkCustomerKYCConditions(detail);\n\n    }\n\n    function downvoteCustomer(string memory _customerName) public activeBank {\n        Customer storage detail = customers[_customerName];\n        require(detail.bank != address(0), \"Customer doesn't exist\");\n        detail.downVotes++;\n        _checkCustomerKYCConditions(detail);\n    }\n\n    function addRequest(string calldata _customerName, string calldata _dataHash) external activeBank {\n        Customer storage detail = customers[_customerName];\n        if(detail.bank == address(0)){ // Customer not present, so add to the system b4 initiating the KYC\n            addCustomer(_customerName, _dataHash);\n        }\n        require(bankCustomerKYCRequestsMap[msg.sender][_customerName].bankAddress == address(0),\"Request Exist Already\");\n        bankCustomerKYCRequestsMap[msg.sender][_customerName] = KYCRequest(_customerName,msg.sender,_dataHash);\n        banks[msg.sender].kycCount++;\n    }\n\n    function removeRequest(string calldata _customerName) external onlyBank {\n        require(bankCustomerKYCRequestsMap[msg.sender][_customerName].bankAddress != address(0),\"Request not available\");\n        delete(bankCustomerKYCRequestsMap[msg.sender][_customerName]);\n    }\n\n}\n",
  "sourcePath": "/Users/snallayan/Fun/blockchain-playground/phase3/KYC-SC/contracts/KYC.sol",
  "compiler": {
    "name": "solc",
    "version": "0.8.0+commit.c7dfd78e.Emscripten.clang"
  },
  "schemaVersion": "3.4.1",
  "updatedAt": "2021-06-07T17:11:42.840Z",
  "devdoc": {
    "kind": "dev",
    "methods": {},
    "version": 1
  },
  "userdoc": {
    "kind": "user",
    "methods": {},
    "version": 1
  }
}