{
  "contractName": "KYC",
  "abi": [
    {
      "inputs": [],
      "name": "activeBanksCount",
      "outputs": [
        {
          "internalType": "uint256",
          "name": "",
          "type": "uint256"
        }
      ],
      "stateMutability": "view",
      "type": "function",
      "constant": true
    },
    {
      "inputs": [
        {
          "internalType": "string",
          "name": "_name",
          "type": "string"
        },
        {
          "internalType": "address",
          "name": "_bankAddress",
          "type": "address"
        },
        {
          "internalType": "string",
          "name": "_registrationNumber",
          "type": "string"
        }
      ],
      "name": "addBank",
      "outputs": [],
      "stateMutability": "nonpayable",
      "type": "function"
    },
    {
      "inputs": [
        {
          "internalType": "address",
          "name": "_bankAddress",
          "type": "address"
        }
      ],
      "name": "getBankComplaints",
      "outputs": [
        {
          "internalType": "uint256",
          "name": "",
          "type": "uint256"
        }
      ],
      "stateMutability": "view",
      "type": "function",
      "constant": true
    },
    {
      "inputs": [
        {
          "internalType": "address",
          "name": "_bankAddress",
          "type": "address"
        }
      ],
      "name": "removeBank",
      "outputs": [],
      "stateMutability": "nonpayable",
      "type": "function"
    },
    {
      "inputs": [
        {
          "internalType": "address",
          "name": "_bankAddress",
          "type": "address"
        }
      ],
      "name": "reportBank",
      "outputs": [],
      "stateMutability": "nonpayable",
      "type": "function"
    },
    {
      "inputs": [
        {
          "internalType": "address",
          "name": "_bankAddress",
          "type": "address"
        },
        {
          "internalType": "bool",
          "name": "_isAllowedToVote",
          "type": "bool"
        }
      ],
      "name": "toggleVote",
      "outputs": [],
      "stateMutability": "nonpayable",
      "type": "function"
    },
    {
      "inputs": [
        {
          "internalType": "address",
          "name": "_bankAddress",
          "type": "address"
        }
      ],
      "name": "viewBankDetails",
      "outputs": [
        {
          "components": [
            {
              "internalType": "string",
              "name": "name",
              "type": "string"
            },
            {
              "internalType": "address",
              "name": "ethAddress",
              "type": "address"
            },
            {
              "internalType": "uint256",
              "name": "complaintsReported",
              "type": "uint256"
            },
            {
              "internalType": "uint256",
              "name": "kycCount",
              "type": "uint256"
            },
            {
              "internalType": "bool",
              "name": "isAllowedToVote",
              "type": "bool"
            },
            {
              "internalType": "string",
              "name": "regNumber",
              "type": "string"
            }
          ],
          "internalType": "struct Admin.Bank",
          "name": "",
          "type": "tuple"
        }
      ],
      "stateMutability": "view",
      "type": "function",
      "constant": true
    },
    {
      "inputs": [
        {
          "internalType": "string",
          "name": "_customerName",
          "type": "string"
        },
        {
          "internalType": "string",
          "name": "_customerData",
          "type": "string"
        }
      ],
      "name": "addCustomer",
      "outputs": [],
      "stateMutability": "nonpayable",
      "type": "function"
    },
    {
      "inputs": [
        {
          "internalType": "string",
          "name": "_customerName",
          "type": "string"
        },
        {
          "internalType": "string",
          "name": "_customerData",
          "type": "string"
        }
      ],
      "name": "modifyCustomer",
      "outputs": [],
      "stateMutability": "nonpayable",
      "type": "function"
    },
    {
      "inputs": [
        {
          "internalType": "string",
          "name": "_customerName",
          "type": "string"
        }
      ],
      "name": "viewCustomer",
      "outputs": [
        {
          "internalType": "string",
          "name": "",
          "type": "string"
        },
        {
          "internalType": "string",
          "name": "",
          "type": "string"
        },
        {
          "internalType": "bool",
          "name": "",
          "type": "bool"
        },
        {
          "internalType": "uint256",
          "name": "",
          "type": "uint256"
        },
        {
          "internalType": "uint256",
          "name": "",
          "type": "uint256"
        },
        {
          "internalType": "address",
          "name": "",
          "type": "address"
        }
      ],
      "stateMutability": "view",
      "type": "function",
      "constant": true
    },
    {
      "inputs": [
        {
          "internalType": "string",
          "name": "_customerName",
          "type": "string"
        }
      ],
      "name": "upvoteCustomer",
      "outputs": [],
      "stateMutability": "nonpayable",
      "type": "function"
    },
    {
      "inputs": [
        {
          "internalType": "string",
          "name": "_customerName",
          "type": "string"
        }
      ],
      "name": "downvoteCustomer",
      "outputs": [],
      "stateMutability": "nonpayable",
      "type": "function"
    },
    {
      "inputs": [
        {
          "internalType": "string",
          "name": "_customerName",
          "type": "string"
        },
        {
          "internalType": "string",
          "name": "_dataHash",
          "type": "string"
        }
      ],
      "name": "addRequest",
      "outputs": [],
      "stateMutability": "nonpayable",
      "type": "function"
    },
    {
      "inputs": [
        {
          "internalType": "string",
          "name": "_customerName",
          "type": "string"
        }
      ],
      "name": "removeRequest",
      "outputs": [],
      "stateMutability": "nonpayable",
      "type": "function"
    }
  ],
  "bytecode": "0x6080604052600060015534801561001557600080fd5b50336000806101000a81548173ffffffffffffffffffffffffffffffffffffffff021916908373ffffffffffffffffffffffffffffffffffffffff160217905550614be8806100656000396000f3fe608060405234801561001057600080fd5b50600436106100ea5760003560e01c80639649650c1161008c578063ccfa8e7111610066578063ccfa8e7114610248578063f2f4ed8f14610264578063f72860ca14610280578063fa09bdc61461029c576100ea565b80639649650c146101f4578063a5a4980014610210578063b9da4af81461022c576100ea565b80636cba00e6116100c85780636cba00e6146101705780637b49753d1461018c5780637d38d711146101a857806388cc8d8d146101c4576100ea565b8063107925bb146100ef5780633190abc0146101245780635ec2a7f214610140575b600080fd5b61010960048036038101906101049190613f49565b6102ba565b60405161011b96959493929190614683565b60405180910390f35b61013e60048036038101906101399190613f8a565b610613565b005b61015a60048036038101906101559190613da1565b610a5e565b6040516101679190614894565b60405180910390f35b61018a60048036038101906101859190613e06565b610b43565b005b6101a660048036038101906101a19190613dca565b610ed4565b005b6101c260048036038101906101bd9190613f49565b610f70565b005b6101de60048036038101906101d99190613da1565b611824565b6040516101eb9190614872565b60405180910390f35b61020e60048036038101906102099190613da1565b611ac0565b005b61022a60048036038101906102259190613da1565b611cee565b005b61024660048036038101906102419190613ed4565b612082565b005b610262600480360381019061025d9190613e4b565b61277e565b005b61027e60048036038101906102799190613f49565b612ac9565b005b61029a60048036038101906102959190613f8a565b61337d565b005b6102a46136fb565b6040516102b19190614894565b60405180910390f35b606080600080600080600073ffffffffffffffffffffffffffffffffffffffff16600260003373ffffffffffffffffffffffffffffffffffffffff1673ffffffffffffffffffffffffffffffffffffffff16815260200190815260200160002060010160009054906101000a900473ffffffffffffffffffffffffffffffffffffffff1673ffffffffffffffffffffffffffffffffffffffff161415610395576040517f08c379a000000000000000000000000000000000000000000000000000000000815260040161038c90614772565b60405180910390fd5b60006003886040516103a79190614624565b90815260200160405180910390206040518060c00160405290816000820180546103d090614a6b565b80601f01602080910402602001604051908101604052809291908181526020018280546103fc90614a6b565b80156104495780601f1061041e57610100808354040283529160200191610449565b820191906000526020600020905b81548152906001019060200180831161042c57829003601f168201915b5050505050815260200160018201805461046290614a6b565b80601f016020809104026020016040519081016040528092919081815260200182805461048e90614a6b565b80156104db5780601f106104b0576101008083540402835291602001916104db565b820191906000526020600020905b8154815290600101906020018083116104be57829003601f168201915b505050505081526020016002820160009054906101000a900460ff1615151515815260200160038201548152602001600482015481526020016005820160009054906101000a900473ffffffffffffffffffffffffffffffffffffffff1673ffffffffffffffffffffffffffffffffffffffff1673ffffffffffffffffffffffffffffffffffffffff16815250509050600073ffffffffffffffffffffffffffffffffffffffff168160a0015173ffffffffffffffffffffffffffffffffffffffff1614156105df576040517f08c379a00000000000000000000000000000000000000000000000000000000081526004016105d690614852565b60405180910390fd5b806000015181602001518260400151836060015184608001518560a001519650965096509650965096505091939550919395565b6000600260003373ffffffffffffffffffffffffffffffffffffffff1673ffffffffffffffffffffffffffffffffffffffff1681526020019081526020016000206040518060c001604052908160008201805461066f90614a6b565b80601f016020809104026020016040519081016040528092919081815260200182805461069b90614a6b565b80156106e85780601f106106bd576101008083540402835291602001916106e8565b820191906000526020600020905b8154815290600101906020018083116106cb57829003601f168201915b505050505081526020016001820160009054906101000a900473ffffffffffffffffffffffffffffffffffffffff1673ffffffffffffffffffffffffffffffffffffffff1673ffffffffffffffffffffffffffffffffffffffff16815260200160028201548152602001600382015481526020016004820160009054906101000a900460ff1615151515815260200160058201805461078690614a6b565b80601f01602080910402602001604051908101604052809291908181526020018280546107b290614a6b565b80156107ff5780601f106107d4576101008083540402835291602001916107ff565b820191906000526020600020905b8154815290600101906020018083116107e257829003601f168201915b5050505050815250509050600073ffffffffffffffffffffffffffffffffffffffff16816020015173ffffffffffffffffffffffffffffffffffffffff161415801561084c575080608001515b61088b576040517f08c379a0000000000000000000000000000000000000000000000000000000008152600401610882906147f2565b60405180910390fd5b600073ffffffffffffffffffffffffffffffffffffffff166003846040516108b39190614624565b908152602001604051809103902060050160009054906101000a900473ffffffffffffffffffffffffffffffffffffffff1673ffffffffffffffffffffffffffffffffffffffff161461093b576040517f08c379a000000000000000000000000000000000000000000000000000000000815260040161093290614832565b60405180910390fd5b6040518060c0016040528084815260200183815260200160001515815260200160008152602001600081526020013373ffffffffffffffffffffffffffffffffffffffff168152506003846040516109939190614624565b908152602001604051809103902060008201518160000190805190602001906109bd929190613b94565b5060208201518160010190805190602001906109da929190613b94565b5060408201518160020160006101000a81548160ff021916908315150217905550606082015181600301556080820151816004015560a08201518160050160006101000a81548173ffffffffffffffffffffffffffffffffffffffff021916908373ffffffffffffffffffffffffffffffffffffffff160217905550905050505050565b600080600260008473ffffffffffffffffffffffffffffffffffffffff1673ffffffffffffffffffffffffffffffffffffffff1681526020019081526020016000209050600073ffffffffffffffffffffffffffffffffffffffff168160010160009054906101000a900473ffffffffffffffffffffffffffffffffffffffff1673ffffffffffffffffffffffffffffffffffffffff161415610b36576040517f08c379a0000000000000000000000000000000000000000000000000000000008152600401610b2d906147b2565b60405180910390fd5b8060020154915050919050565b600073ffffffffffffffffffffffffffffffffffffffff16600260003373ffffffffffffffffffffffffffffffffffffffff1673ffffffffffffffffffffffffffffffffffffffff16815260200190815260200160002060010160009054906101000a900473ffffffffffffffffffffffffffffffffffffffff1673ffffffffffffffffffffffffffffffffffffffff161415610c15576040517f08c379a0000000000000000000000000000000000000000000000000000000008152600401610c0c90614772565b60405180910390fd5b600073ffffffffffffffffffffffffffffffffffffffff16600560003373ffffffffffffffffffffffffffffffffffffffff1673ffffffffffffffffffffffffffffffffffffffff1681526020019081526020016000208383604051610c7c92919061460b565b908152602001604051809103902060010160009054906101000a900473ffffffffffffffffffffffffffffffffffffffff1673ffffffffffffffffffffffffffffffffffffffff161415610d05576040517f08c379a0000000000000000000000000000000000000000000000000000000008152600401610cfc906146f2565b60405180910390fd5b3373ffffffffffffffffffffffffffffffffffffffff16600560003373ffffffffffffffffffffffffffffffffffffffff1673ffffffffffffffffffffffffffffffffffffffff1681526020019081526020016000208383604051610d6b92919061460b565b908152602001604051809103902060010160009054906101000a900473ffffffffffffffffffffffffffffffffffffffff1673ffffffffffffffffffffffffffffffffffffffff1614610df3576040517f08c379a0000000000000000000000000000000000000000000000000000000008152600401610dea90614812565b60405180910390fd5b600560003373ffffffffffffffffffffffffffffffffffffffff1673ffffffffffffffffffffffffffffffffffffffff1681526020019081526020016000208282604051610e4292919061460b565b908152602001604051809103902060008082016000610e619190613c1a565b6001820160006101000a81549073ffffffffffffffffffffffffffffffffffffffff0219169055600282016000610e989190613c1a565b505060048282604051610eac92919061460b565b90815260200160405180910390206000815480929190610ecb90614a41565b91905055505050565b60008054906101000a900473ffffffffffffffffffffffffffffffffffffffff1673ffffffffffffffffffffffffffffffffffffffff163373ffffffffffffffffffffffffffffffffffffffff1614610f62576040517f08c379a0000000000000000000000000000000000000000000000000000000008152600401610f5990614712565b60405180910390fd5b610f6c8282613701565b5050565b6000600260003373ffffffffffffffffffffffffffffffffffffffff1673ffffffffffffffffffffffffffffffffffffffff1681526020019081526020016000206040518060c0016040529081600082018054610fcc90614a6b565b80601f0160208091040260200160405190810160405280929190818152602001828054610ff890614a6b565b80156110455780601f1061101a57610100808354040283529160200191611045565b820191906000526020600020905b81548152906001019060200180831161102857829003601f168201915b505050505081526020016001820160009054906101000a900473ffffffffffffffffffffffffffffffffffffffff1673ffffffffffffffffffffffffffffffffffffffff1673ffffffffffffffffffffffffffffffffffffffff16815260200160028201548152602001600382015481526020016004820160009054906101000a900460ff161515151581526020016005820180546110e390614a6b565b80601f016020809104026020016040519081016040528092919081815260200182805461110f90614a6b565b801561115c5780601f106111315761010080835404028352916020019161115c565b820191906000526020600020905b81548152906001019060200180831161113f57829003601f168201915b5050505050815250509050600073ffffffffffffffffffffffffffffffffffffffff16816020015173ffffffffffffffffffffffffffffffffffffffff16141580156111a9575080608001515b6111e8576040517f08c379a00000000000000000000000000000000000000000000000000000000081526004016111df906147f2565b60405180910390fd5b8160006003826040516111fb9190614624565b90815260200160405180910390206040518060c001604052908160008201805461122490614a6b565b80601f016020809104026020016040519081016040528092919081815260200182805461125090614a6b565b801561129d5780601f106112725761010080835404028352916020019161129d565b820191906000526020600020905b81548152906001019060200180831161128057829003601f168201915b505050505081526020016001820180546112b690614a6b565b80601f01602080910402602001604051908101604052809291908181526020018280546112e290614a6b565b801561132f5780601f106113045761010080835404028352916020019161132f565b820191906000526020600020905b81548152906001019060200180831161131257829003601f168201915b505050505081526020016002820160009054906101000a900460ff1615151515815260200160038201548152602001600482015481526020016005820160009054906101000a900473ffffffffffffffffffffffffffffffffffffffff1673ffffffffffffffffffffffffffffffffffffffff1673ffffffffffffffffffffffffffffffffffffffff16815250509050600073ffffffffffffffffffffffffffffffffffffffff168160a0015173ffffffffffffffffffffffffffffffffffffffff161415611433576040517f08c379a000000000000000000000000000000000000000000000000000000000815260040161142a90614852565b60405180910390fd5b60006004836040516114459190614624565b90815260200160405180910390205411611494576040517f08c379a000000000000000000000000000000000000000000000000000000000815260040161148b90614792565b60405180910390fd5b8360006003826040516114a79190614624565b90815260200160405180910390206040518060c00160405290816000820180546114d090614a6b565b80601f01602080910402602001604051908101604052809291908181526020018280546114fc90614a6b565b80156115495780601f1061151e57610100808354040283529160200191611549565b820191906000526020600020905b81548152906001019060200180831161152c57829003601f168201915b5050505050815260200160018201805461156290614a6b565b80601f016020809104026020016040519081016040528092919081815260200182805461158e90614a6b565b80156115db5780601f106115b0576101008083540402835291602001916115db565b820191906000526020600020905b8154815290600101906020018083116115be57829003601f168201915b505050505081526020016002820160009054906101000a900460ff1615151515815260200160038201548152602001600482015481526020016005820160009054906101000a900473ffffffffffffffffffffffffffffffffffffffff1673ffffffffffffffffffffffffffffffffffffffff1673ffffffffffffffffffffffffffffffffffffffff16815250509050600660003373ffffffffffffffffffffffffffffffffffffffff1673ffffffffffffffffffffffffffffffffffffffff1681526020019081526020016000208282602001516040516020016116c192919061463b565b6040516020818303038152906040526040516116dd9190614624565b908152602001604051809103902060009054906101000a900460ff1615611739576040517f08c379a0000000000000000000000000000000000000000000000000000000008152600401611730906147d2565b60405180910390fd5b600060038760405161174b9190614624565b90815260200160405180910390209050600073ffffffffffffffffffffffffffffffffffffffff168160050160009054906101000a900473ffffffffffffffffffffffffffffffffffffffff1673ffffffffffffffffffffffffffffffffffffffff1614156117ef576040517f08c379a00000000000000000000000000000000000000000000000000000000081526004016117e690614852565b60405180910390fd5b80600301600081548092919061180490614a9d565b919050555061181281613817565b61181b87613ad6565b50505050505050565b61182c613c5a565b6000600260008473ffffffffffffffffffffffffffffffffffffffff1673ffffffffffffffffffffffffffffffffffffffff1681526020019081526020016000209050600073ffffffffffffffffffffffffffffffffffffffff168160010160009054906101000a900473ffffffffffffffffffffffffffffffffffffffff1673ffffffffffffffffffffffffffffffffffffffff161415611903576040517f08c379a00000000000000000000000000000000000000000000000000000000081526004016118fa906147b2565b60405180910390fd5b806040518060c001604052908160008201805461191f90614a6b565b80601f016020809104026020016040519081016040528092919081815260200182805461194b90614a6b565b80156119985780601f1061196d57610100808354040283529160200191611998565b820191906000526020600020905b81548152906001019060200180831161197b57829003601f168201915b505050505081526020016001820160009054906101000a900473ffffffffffffffffffffffffffffffffffffffff1673ffffffffffffffffffffffffffffffffffffffff1673ffffffffffffffffffffffffffffffffffffffff16815260200160028201548152602001600382015481526020016004820160009054906101000a900460ff16151515158152602001600582018054611a3690614a6b565b80601f0160208091040260200160405190810160405280929190818152602001828054611a6290614a6b565b8015611aaf5780601f10611a8457610100808354040283529160200191611aaf565b820191906000526020600020905b815481529060010190602001808311611a9257829003601f168201915b505050505081525050915050919050565b60008054906101000a900473ffffffffffffffffffffffffffffffffffffffff1673ffffffffffffffffffffffffffffffffffffffff163373ffffffffffffffffffffffffffffffffffffffff1614611b4e576040517f08c379a0000000000000000000000000000000000000000000000000000000008152600401611b4590614712565b60405180910390fd5b6000600260008373ffffffffffffffffffffffffffffffffffffffff1673ffffffffffffffffffffffffffffffffffffffff1681526020019081526020016000209050600073ffffffffffffffffffffffffffffffffffffffff168160010160009054906101000a900473ffffffffffffffffffffffffffffffffffffffff1673ffffffffffffffffffffffffffffffffffffffff161415611c25576040517f08c379a0000000000000000000000000000000000000000000000000000000008152600401611c1c906147b2565b60405180910390fd5b600260008373ffffffffffffffffffffffffffffffffffffffff1673ffffffffffffffffffffffffffffffffffffffff16815260200190815260200160002060008082016000611c759190613c1a565b6001820160006101000a81549073ffffffffffffffffffffffffffffffffffffffff0219169055600282016000905560038201600090556004820160006101000a81549060ff0219169055600582016000611cd09190613c1a565b505060016000815480929190611ce590614a41565b91905055505050565b6000600260003373ffffffffffffffffffffffffffffffffffffffff1673ffffffffffffffffffffffffffffffffffffffff1681526020019081526020016000206040518060c0016040529081600082018054611d4a90614a6b565b80601f0160208091040260200160405190810160405280929190818152602001828054611d7690614a6b565b8015611dc35780601f10611d9857610100808354040283529160200191611dc3565b820191906000526020600020905b815481529060010190602001808311611da657829003601f168201915b505050505081526020016001820160009054906101000a900473ffffffffffffffffffffffffffffffffffffffff1673ffffffffffffffffffffffffffffffffffffffff1673ffffffffffffffffffffffffffffffffffffffff16815260200160028201548152602001600382015481526020016004820160009054906101000a900460ff16151515158152602001600582018054611e6190614a6b565b80601f0160208091040260200160405190810160405280929190818152602001828054611e8d90614a6b565b8015611eda5780601f10611eaf57610100808354040283529160200191611eda565b820191906000526020600020905b815481529060010190602001808311611ebd57829003601f168201915b5050505050815250509050600073ffffffffffffffffffffffffffffffffffffffff16816020015173ffffffffffffffffffffffffffffffffffffffff1614158015611f27575080608001515b611f66576040517f08c379a0000000000000000000000000000000000000000000000000000000008152600401611f5d906147f2565b60405180910390fd5b6000600260008473ffffffffffffffffffffffffffffffffffffffff1673ffffffffffffffffffffffffffffffffffffffff1681526020019081526020016000209050600073ffffffffffffffffffffffffffffffffffffffff168160010160009054906101000a900473ffffffffffffffffffffffffffffffffffffffff1673ffffffffffffffffffffffffffffffffffffffff16141561203d576040517f08c379a0000000000000000000000000000000000000000000000000000000008152600401612034906147b2565b60405180910390fd5b80600201600081548092919061205290614a9d565b91905055506001546003826002015461206b919061495d565b111561207d5761207c836000613701565b5b505050565b6000600260003373ffffffffffffffffffffffffffffffffffffffff1673ffffffffffffffffffffffffffffffffffffffff1681526020019081526020016000206040518060c00160405290816000820180546120de90614a6b565b80601f016020809104026020016040519081016040528092919081815260200182805461210a90614a6b565b80156121575780601f1061212c57610100808354040283529160200191612157565b820191906000526020600020905b81548152906001019060200180831161213a57829003601f168201915b505050505081526020016001820160009054906101000a900473ffffffffffffffffffffffffffffffffffffffff1673ffffffffffffffffffffffffffffffffffffffff1673ffffffffffffffffffffffffffffffffffffffff16815260200160028201548152602001600382015481526020016004820160009054906101000a900460ff161515151581526020016005820180546121f590614a6b565b80601f016020809104026020016040519081016040528092919081815260200182805461222190614a6b565b801561226e5780601f106122435761010080835404028352916020019161226e565b820191906000526020600020905b81548152906001019060200180831161225157829003601f168201915b5050505050815250509050600073ffffffffffffffffffffffffffffffffffffffff16816020015173ffffffffffffffffffffffffffffffffffffffff16141580156122bb575080608001515b6122fa576040517f08c379a00000000000000000000000000000000000000000000000000000000081526004016122f1906147f2565b60405180910390fd5b60006003868660405161230e92919061460b565b90815260200160405180910390209050600073ffffffffffffffffffffffffffffffffffffffff168160050160009054906101000a900473ffffffffffffffffffffffffffffffffffffffff1673ffffffffffffffffffffffffffffffffffffffff16141561240a5761240986868080601f016020809104026020016040519081016040528093929190818152602001838380828437600081840152601f19601f8201169050808301925050505050505085858080601f016020809104026020016040519081016040528093929190818152602001838380828437600081840152601f19601f82011690508083019250505050505050610613565b5b600073ffffffffffffffffffffffffffffffffffffffff16600560003373ffffffffffffffffffffffffffffffffffffffff1673ffffffffffffffffffffffffffffffffffffffff168152602001908152602001600020878760405161247192919061460b565b908152602001604051809103902060010160009054906101000a900473ffffffffffffffffffffffffffffffffffffffff1673ffffffffffffffffffffffffffffffffffffffff16146124f9576040517f08c379a00000000000000000000000000000000000000000000000000000000081526004016124f090614752565b60405180910390fd5b604051806060016040528087878080601f016020809104026020016040519081016040528093929190818152602001838380828437600081840152601f19601f8201169050808301925050505050505081526020013373ffffffffffffffffffffffffffffffffffffffff16815260200185858080601f016020809104026020016040519081016040528093929190818152602001838380828437600081840152601f19601f82011690508083019250505050505050815250600560003373ffffffffffffffffffffffffffffffffffffffff1673ffffffffffffffffffffffffffffffffffffffff168152602001908152602001600020878760405161260192919061460b565b9081526020016040518091039020600082015181600001908051906020019061262b929190613b94565b5060208201518160010160006101000a81548173ffffffffffffffffffffffffffffffffffffffff021916908373ffffffffffffffffffffffffffffffffffffffff160217905550604082015181600201908051906020019061268f929190613b94565b509050506000600487876040516126a792919061460b565b90815260200160405180910390205411156126f757600486866040516126ce92919061460b565b908152602001604051809103902060008154809291906126ed90614a9d565b919050555061271e565b60016004878760405161270b92919061460b565b9081526020016040518091039020819055505b600260003373ffffffffffffffffffffffffffffffffffffffff1673ffffffffffffffffffffffffffffffffffffffff168152602001908152602001600020600301600081548092919061277190614a9d565b9190505550505050505050565b60008054906101000a900473ffffffffffffffffffffffffffffffffffffffff1673ffffffffffffffffffffffffffffffffffffffff163373ffffffffffffffffffffffffffffffffffffffff161461280c576040517f08c379a000000000000000000000000000000000000000000000000000000000815260040161280390614712565b60405180910390fd5b6000600260008573ffffffffffffffffffffffffffffffffffffffff1673ffffffffffffffffffffffffffffffffffffffff1681526020019081526020016000209050600073ffffffffffffffffffffffffffffffffffffffff168160010160009054906101000a900473ffffffffffffffffffffffffffffffffffffffff1673ffffffffffffffffffffffffffffffffffffffff16146128e2576040517f08c379a00000000000000000000000000000000000000000000000000000000081526004016128d990614732565b60405180910390fd5b6040518060c0016040528087878080601f016020809104026020016040519081016040528093929190818152602001838380828437600081840152601f19601f8201169050808301925050505050505081526020018573ffffffffffffffffffffffffffffffffffffffff168152602001600081526020016000815260200160011515815260200184848080601f016020809104026020016040519081016040528093929190818152602001838380828437600081840152601f19601f82011690508083019250505050505050815250600260008673ffffffffffffffffffffffffffffffffffffffff1673ffffffffffffffffffffffffffffffffffffffff1681526020019081526020016000206000820151816000019080519060200190612a0d929190613b94565b5060208201518160010160006101000a81548173ffffffffffffffffffffffffffffffffffffffff021916908373ffffffffffffffffffffffffffffffffffffffff160217905550604082015181600201556060820151816003015560808201518160040160006101000a81548160ff02191690831515021790555060a0820151816005019080519060200190612aa5929190613b94565b5090505060016000815480929190612abc90614a9d565b9190505550505050505050565b6000600260003373ffffffffffffffffffffffffffffffffffffffff1673ffffffffffffffffffffffffffffffffffffffff1681526020019081526020016000206040518060c0016040529081600082018054612b2590614a6b565b80601f0160208091040260200160405190810160405280929190818152602001828054612b5190614a6b565b8015612b9e5780601f10612b7357610100808354040283529160200191612b9e565b820191906000526020600020905b815481529060010190602001808311612b8157829003601f168201915b505050505081526020016001820160009054906101000a900473ffffffffffffffffffffffffffffffffffffffff1673ffffffffffffffffffffffffffffffffffffffff1673ffffffffffffffffffffffffffffffffffffffff16815260200160028201548152602001600382015481526020016004820160009054906101000a900460ff16151515158152602001600582018054612c3c90614a6b565b80601f0160208091040260200160405190810160405280929190818152602001828054612c6890614a6b565b8015612cb55780601f10612c8a57610100808354040283529160200191612cb5565b820191906000526020600020905b815481529060010190602001808311612c9857829003601f168201915b5050505050815250509050600073ffffffffffffffffffffffffffffffffffffffff16816020015173ffffffffffffffffffffffffffffffffffffffff1614158015612d02575080608001515b612d41576040517f08c379a0000000000000000000000000000000000000000000000000000000008152600401612d38906147f2565b60405180910390fd5b816000600382604051612d549190614624565b90815260200160405180910390206040518060c0016040529081600082018054612d7d90614a6b565b80601f0160208091040260200160405190810160405280929190818152602001828054612da990614a6b565b8015612df65780601f10612dcb57610100808354040283529160200191612df6565b820191906000526020600020905b815481529060010190602001808311612dd957829003601f168201915b50505050508152602001600182018054612e0f90614a6b565b80601f0160208091040260200160405190810160405280929190818152602001828054612e3b90614a6b565b8015612e885780601f10612e5d57610100808354040283529160200191612e88565b820191906000526020600020905b815481529060010190602001808311612e6b57829003601f168201915b505050505081526020016002820160009054906101000a900460ff1615151515815260200160038201548152602001600482015481526020016005820160009054906101000a900473ffffffffffffffffffffffffffffffffffffffff1673ffffffffffffffffffffffffffffffffffffffff1673ffffffffffffffffffffffffffffffffffffffff16815250509050600073ffffffffffffffffffffffffffffffffffffffff168160a0015173ffffffffffffffffffffffffffffffffffffffff161415612f8c576040517f08c379a0000000000000000000000000000000000000000000000000000000008152600401612f8390614852565b60405180910390fd5b6000600483604051612f9e9190614624565b90815260200160405180910390205411612fed576040517f08c379a0000000000000000000000000000000000000000000000000000000008152600401612fe490614792565b60405180910390fd5b8360006003826040516130009190614624565b90815260200160405180910390206040518060c001604052908160008201805461302990614a6b565b80601f016020809104026020016040519081016040528092919081815260200182805461305590614a6b565b80156130a25780601f10613077576101008083540402835291602001916130a2565b820191906000526020600020905b81548152906001019060200180831161308557829003601f168201915b505050505081526020016001820180546130bb90614a6b565b80601f01602080910402602001604051908101604052809291908181526020018280546130e790614a6b565b80156131345780601f1061310957610100808354040283529160200191613134565b820191906000526020600020905b81548152906001019060200180831161311757829003601f168201915b505050505081526020016002820160009054906101000a900460ff1615151515815260200160038201548152602001600482015481526020016005820160009054906101000a900473ffffffffffffffffffffffffffffffffffffffff1673ffffffffffffffffffffffffffffffffffffffff1673ffffffffffffffffffffffffffffffffffffffff16815250509050600660003373ffffffffffffffffffffffffffffffffffffffff1673ffffffffffffffffffffffffffffffffffffffff16815260200190815260200160002082826020015160405160200161321a92919061463b565b6040516020818303038152906040526040516132369190614624565b908152602001604051809103902060009054906101000a900460ff1615613292576040517f08c379a0000000000000000000000000000000000000000000000000000000008152600401613289906147d2565b60405180910390fd5b60006003876040516132a49190614624565b90815260200160405180910390209050600073ffffffffffffffffffffffffffffffffffffffff168160050160009054906101000a900473ffffffffffffffffffffffffffffffffffffffff1673ffffffffffffffffffffffffffffffffffffffff161415613348576040517f08c379a000000000000000000000000000000000000000000000000000000000815260040161333f90614852565b60405180910390fd5b80600401600081548092919061335d90614a9d565b919050555061336b81613817565b61337487613ad6565b50505050505050565b6000600260003373ffffffffffffffffffffffffffffffffffffffff1673ffffffffffffffffffffffffffffffffffffffff1681526020019081526020016000206040518060c00160405290816000820180546133d990614a6b565b80601f016020809104026020016040519081016040528092919081815260200182805461340590614a6b565b80156134525780601f1061342757610100808354040283529160200191613452565b820191906000526020600020905b81548152906001019060200180831161343557829003601f168201915b505050505081526020016001820160009054906101000a900473ffffffffffffffffffffffffffffffffffffffff1673ffffffffffffffffffffffffffffffffffffffff1673ffffffffffffffffffffffffffffffffffffffff16815260200160028201548152602001600382015481526020016004820160009054906101000a900460ff161515151581526020016005820180546134f090614a6b565b80601f016020809104026020016040519081016040528092919081815260200182805461351c90614a6b565b80156135695780601f1061353e57610100808354040283529160200191613569565b820191906000526020600020905b81548152906001019060200180831161354c57829003601f168201915b5050505050815250509050600073ffffffffffffffffffffffffffffffffffffffff16816020015173ffffffffffffffffffffffffffffffffffffffff16141580156135b6575080608001515b6135f5576040517f08c379a00000000000000000000000000000000000000000000000000000000081526004016135ec906147f2565b60405180910390fd5b60006003846040516136079190614624565b90815260200160405180910390209050600073ffffffffffffffffffffffffffffffffffffffff168160050160009054906101000a900473ffffffffffffffffffffffffffffffffffffffff1673ffffffffffffffffffffffffffffffffffffffff1614156136ab576040517f08c379a00000000000000000000000000000000000000000000000000000000081526004016136a290614852565b60405180910390fd5b828160010190805190602001906136c3929190613b94565b5060008160020160006101000a81548160ff021916908315150217905550600081600301819055506000816004018190555050505050565b60015481565b6000600260008473ffffffffffffffffffffffffffffffffffffffff1673ffffffffffffffffffffffffffffffffffffffff1681526020019081526020016000209050600073ffffffffffffffffffffffffffffffffffffffff168160010160009054906101000a900473ffffffffffffffffffffffffffffffffffffffff1673ffffffffffffffffffffffffffffffffffffffff1614156137d8576040517f08c379a00000000000000000000000000000000000000000000000000000000081526004016137cf906147b2565b60405180910390fd5b818160040160006101000a81548160ff02191690831515021790555081613812576001600081548092919061380c90614a41565b91905055505b505050565b6000600260003373ffffffffffffffffffffffffffffffffffffffff1673ffffffffffffffffffffffffffffffffffffffff1681526020019081526020016000206040518060c001604052908160008201805461387390614a6b565b80601f016020809104026020016040519081016040528092919081815260200182805461389f90614a6b565b80156138ec5780601f106138c1576101008083540402835291602001916138ec565b820191906000526020600020905b8154815290600101906020018083116138cf57829003601f168201915b505050505081526020016001820160009054906101000a900473ffffffffffffffffffffffffffffffffffffffff1673ffffffffffffffffffffffffffffffffffffffff1673ffffffffffffffffffffffffffffffffffffffff16815260200160028201548152602001600382015481526020016004820160009054906101000a900460ff1615151515815260200160058201805461398a90614a6b565b80601f01602080910402602001604051908101604052809291908181526020018280546139b690614a6b565b8015613a035780601f106139d857610100808354040283529160200191613a03565b820191906000526020600020905b8154815290600101906020018083116139e657829003601f168201915b5050505050815250509050600073ffffffffffffffffffffffffffffffffffffffff16816020015173ffffffffffffffffffffffffffffffffffffffff1614158015613a50575080608001515b613a8f576040517f08c379a0000000000000000000000000000000000000000000000000000000008152600401613a86906147f2565b60405180910390fd5b81600301548260040154118015613ab7575060015460038360030154613ab5919061495d565b105b8260020160006101000a81548160ff0219169083151502179055505050565b6000600382604051613ae89190614624565b908152602001604051809103902090506001600660003373ffffffffffffffffffffffffffffffffffffffff1673ffffffffffffffffffffffffffffffffffffffff1681526020019081526020016000208383600101604051602001613b4f92919061465f565b604051602081830303815290604052604051613b6b9190614624565b908152602001604051809103902060006101000a81548160ff0219169083151502179055505050565b828054613ba090614a6b565b90600052602060002090601f016020900481019282613bc25760008555613c09565b82601f10613bdb57805160ff1916838001178555613c09565b82800160010185558215613c09579182015b82811115613c08578251825591602001919060010190613bed565b5b509050613c169190613ca8565b5090565b508054613c2690614a6b565b6000825580601f10613c385750613c57565b601f016020900490600052602060002090810190613c569190613ca8565b5b50565b6040518060c0016040528060608152602001600073ffffffffffffffffffffffffffffffffffffffff1681526020016000815260200160008152602001600015158152602001606081525090565b5b80821115613cc1576000816000905550600101613ca9565b5090565b6000613cd8613cd3846148e0565b6148af565b905082815260208101848484011115613cf057600080fd5b613cfb8482856149ff565b509392505050565b600081359050613d1281614b84565b92915050565b600081359050613d2781614b9b565b92915050565b60008083601f840112613d3f57600080fd5b8235905067ffffffffffffffff811115613d5857600080fd5b602083019150836001820283011115613d7057600080fd5b9250929050565b600082601f830112613d8857600080fd5b8135613d98848260208601613cc5565b91505092915050565b600060208284031215613db357600080fd5b6000613dc184828501613d03565b91505092915050565b60008060408385031215613ddd57600080fd5b6000613deb85828601613d03565b9250506020613dfc85828601613d18565b9150509250929050565b60008060208385031215613e1957600080fd5b600083013567ffffffffffffffff811115613e3357600080fd5b613e3f85828601613d2d565b92509250509250929050565b600080600080600060608688031215613e6357600080fd5b600086013567ffffffffffffffff811115613e7d57600080fd5b613e8988828901613d2d565b95509550506020613e9c88828901613d03565b935050604086013567ffffffffffffffff811115613eb957600080fd5b613ec588828901613d2d565b92509250509295509295909350565b60008060008060408587031215613eea57600080fd5b600085013567ffffffffffffffff811115613f0457600080fd5b613f1087828801613d2d565b9450945050602085013567ffffffffffffffff811115613f2f57600080fd5b613f3b87828801613d2d565b925092505092959194509250565b600060208284031215613f5b57600080fd5b600082013567ffffffffffffffff811115613f7557600080fd5b613f8184828501613d77565b91505092915050565b60008060408385031215613f9d57600080fd5b600083013567ffffffffffffffff811115613fb757600080fd5b613fc385828601613d77565b925050602083013567ffffffffffffffff811115613fe057600080fd5b613fec85828601613d77565b9150509250929050565b613fff816149b7565b82525050565b61400e816149b7565b82525050565b61401d816149c9565b82525050565b61402c816149c9565b82525050565b600061403e8385614952565b935061404b8385846149ff565b82840190509392505050565b600061406282614925565b61406c8185614930565b935061407c818560208601614a0e565b61408581614b73565b840191505092915050565b600061409b82614925565b6140a58185614941565b93506140b5818560208601614a0e565b6140be81614b73565b840191505092915050565b60006140d482614925565b6140de8185614952565b93506140ee818560208601614a0e565b80840191505092915050565b6000815461410781614a6b565b6141118186614952565b9450600182166000811461412c576001811461413d57614170565b60ff19831686528186019350614170565b61414685614910565b60005b8381101561416857815481890152600182019150602081019050614149565b838801955050505b50505092915050565b6000614186601983614941565b91507f4b5943205265717565737420646f65736e2774206578697374000000000000006000830152602082019050919050565b60006141c6602383614941565b91507f556e417574686f72697365642054726173616374696f6e2e2041646d696e204f60008301527f6e6c7900000000000000000000000000000000000000000000000000000000006020830152604082019050919050565b600061422c601283614941565b91507f42616e6b20657869737420616c726561647900000000000000000000000000006000830152602082019050919050565b600061426c601983614941565b91507f4b5943205265717565737420457869737420416c7265616479000000000000006000830152602082019050919050565b60006142ac602383614941565b91507f556e417574686f7269736564205472616e73616374696f6e2e2042616e6b204f60008301527f6e6c7900000000000000000000000000000000000000000000000000000000006020830152604082019050919050565b6000614312602b83614941565b91507f4e6f204b5943205265717565737420657869737420666f72207468652067697660008301527f656e20637573746f6d65720000000000000000000000000000000000000000006020830152604082019050919050565b6000614378601283614941565b91507f42616e6b20646f65736e277420657869737400000000000000000000000000006000830152602082019050919050565b60006143b8602483614941565b91507f416c726561647920766f74656420666f722074686520676976656e206375737460008301527f6f6d6572000000000000000000000000000000000000000000000000000000006020830152604082019050919050565b600061441e602a83614941565b91507f556e417574686f7269736564205472616e73616374696f6e2e2041637469766560008301527f2042616e6b204f6e6c79000000000000000000000000000000000000000000006020830152604082019050919050565b6000614484602183614941565b91507f4b594320776173206164646564206279206120646966666572656e742062616e60008301527f6b000000000000000000000000000000000000000000000000000000000000006020830152604082019050919050565b60006144ea601683614941565b91507f437573746f6d657220657869737420616c7265616479000000000000000000006000830152602082019050919050565b600061452a601683614941565b91507f437573746f6d657220646f65736e2774206578697374000000000000000000006000830152602082019050919050565b600060c083016000830151848203600086015261457a8282614057565b915050602083015161458f6020860182613ff6565b5060408301516145a260408601826145ed565b5060608301516145b560608601826145ed565b5060808301516145c86080860182614014565b5060a083015184820360a08601526145e08282614057565b9150508091505092915050565b6145f6816149f5565b82525050565b614605816149f5565b82525050565b6000614618828486614032565b91508190509392505050565b600061463082846140c9565b915081905092915050565b600061464782856140c9565b915061465382846140c9565b91508190509392505050565b600061466b82856140c9565b915061467782846140fa565b91508190509392505050565b600060c082019050818103600083015261469d8189614090565b905081810360208301526146b18188614090565b90506146c06040830187614023565b6146cd60608301866145fc565b6146da60808301856145fc565b6146e760a0830184614005565b979650505050505050565b6000602082019050818103600083015261470b81614179565b9050919050565b6000602082019050818103600083015261472b816141b9565b9050919050565b6000602082019050818103600083015261474b8161421f565b9050919050565b6000602082019050818103600083015261476b8161425f565b9050919050565b6000602082019050818103600083015261478b8161429f565b9050919050565b600060208201905081810360008301526147ab81614305565b9050919050565b600060208201905081810360008301526147cb8161436b565b9050919050565b600060208201905081810360008301526147eb816143ab565b9050919050565b6000602082019050818103600083015261480b81614411565b9050919050565b6000602082019050818103600083015261482b81614477565b9050919050565b6000602082019050818103600083015261484b816144dd565b9050919050565b6000602082019050818103600083015261486b8161451d565b9050919050565b6000602082019050818103600083015261488c818461455d565b905092915050565b60006020820190506148a960008301846145fc565b92915050565b6000604051905081810181811067ffffffffffffffff821117156148d6576148d5614b44565b5b8060405250919050565b600067ffffffffffffffff8211156148fb576148fa614b44565b5b601f19601f8301169050602081019050919050565b60008190508160005260206000209050919050565b600081519050919050565b600082825260208201905092915050565b600082825260208201905092915050565b600081905092915050565b6000614968826149f5565b9150614973836149f5565b9250817fffffffffffffffffffffffffffffffffffffffffffffffffffffffffffffffff04831182151516156149ac576149ab614ae6565b5b828202905092915050565b60006149c2826149d5565b9050919050565b60008115159050919050565b600073ffffffffffffffffffffffffffffffffffffffff82169050919050565b6000819050919050565b82818337600083830152505050565b60005b83811015614a2c578082015181840152602081019050614a11565b83811115614a3b576000848401525b50505050565b6000614a4c826149f5565b91506000821415614a6057614a5f614ae6565b5b600182039050919050565b60006002820490506001821680614a8357607f821691505b60208210811415614a9757614a96614b15565b5b50919050565b6000614aa8826149f5565b91507fffffffffffffffffffffffffffffffffffffffffffffffffffffffffffffffff821415614adb57614ada614ae6565b5b600182019050919050565b7f4e487b7100000000000000000000000000000000000000000000000000000000600052601160045260246000fd5b7f4e487b7100000000000000000000000000000000000000000000000000000000600052602260045260246000fd5b7f4e487b7100000000000000000000000000000000000000000000000000000000600052604160045260246000fd5b6000601f19601f8301169050919050565b614b8d816149b7565b8114614b9857600080fd5b50565b614ba4816149c9565b8114614baf57600080fd5b5056fea2646970667358221220c16f49d634a7738bf2c55ce25b64d2c69d0f0094572728358e7e6aabb32b78af64736f6c63430008000033",
  "immutableReferences": {},
  "source": "pragma solidity 0.8.0;\n// SPDX-License-Identifier: MIT\nimport \"./Admin.sol\";\n\n/// @title KYC\n/// @notice To handle KYC Workflows\n/// @dev\n/// @author sedhu\ncontract KYC is Admin {\n    struct Customer{\n        string username; // unique username , primary identifier\n        string data; // idenities of the customer\n        bool kycStatus; // If the number of upvotes/downvotes meet the required conditions, set kycStatus to true; otherwise, set it to false.\n        uint256 downVotes;\n        uint256 upVotes;\n        address bank; // validated bank\n    }\n\n    struct KYCRequest{\n        string username;\n        address bankAddress;\n        string customerData;\n    }\n\n    mapping(string => Customer) private customers;\n\n    mapping(string => uint256) private customerKYCCountMap;\n\n    mapping(address => mapping(string => KYCRequest)) private bankCustomerKYCRequestsMap;\n\n    mapping(address => mapping (string => bool)) private bankCustomerVotingMap; // Bank To Customer Downvote mapping\n\n    modifier hasVotedAlready(string memory _customerName) {\n        Customer memory _detail = customers[_customerName];\n        require(\n            !bankCustomerVotingMap[msg.sender][string(abi.encodePacked(_customerName, _detail.data))],\n            \"Already voted for the given customer\");\n        _;\n    }\n\n    modifier kycExists(string memory _customerName) {\n        Customer memory _detail = customers[_customerName];\n        require(_detail.bank != address(0), \"Customer doesn't exist\");\n        require(customerKYCCountMap[_customerName] > 0, \"No KYC Request exist for the given customer\");\n        _;\n    }\n\n    function _recordVoting(string memory _customerName) private {\n        Customer storage _detail = customers[_customerName];\n        bankCustomerVotingMap[msg.sender][string(abi.encodePacked(_customerName, _detail.data))] = true;\n    }\n\n    /// @notice Add customer api call\n    /// @dev\n    /// @param _customerName name of the customer\n    /// @param _customerData datahash of the customer\n    function addCustomer(string memory _customerName, string memory _customerData) public activeBank {\n        require(customers[_customerName].bank == address(0), \"Customer exist already\");\n        customers[_customerName] = Customer(_customerName, _customerData,false,0,0, msg.sender);\n\n    }\n\n    /// @notice Modify customer data API\n    /// @dev Resets customer votes and kyc status\n    /// @param _customerName name of the customer\n    /// @param _customerData datahash of the customer\n    function modifyCustomer(string memory _customerName, string memory _customerData) public activeBank {\n        Customer storage detail = customers[_customerName];\n        require(detail.bank != address(0), \"Customer doesn't exist\");\n        detail.data = _customerData;\n        detail.kycStatus = false;\n        detail.downVotes = 0;\n        detail.upVotes = 0;\n    }\n\n    /// @notice to view the customer data\n    /// @dev\n    /// @param _customerName name of the customer\n    /// @return data customer data hash\n    /// @return kycStats KYC Status of the customer\n    /// @return downVotes no of downVotes\n    /// @return upVotes no of upvotes\n    /// @return bank address of the bank which created the customr in the system\n    function viewCustomer(string memory _customerName) public view onlyBank returns( string memory,\n        string memory,\n        bool,\n        uint256,\n        uint256,\n        address)\n    {\n        Customer memory detail = customers[_customerName];\n        require(detail.bank != address(0), \"Customer doesn't exist\");\n        return (detail.username, detail.data, detail.kycStatus, detail.downVotes, detail.upVotes, detail.bank);\n    }\n\n    /// @notice\n    /// @dev\n    /// @param _customer customer object to check\n    function _checkCustomerKYCConditions(Customer storage _customer) private activeBank {\n        _customer.kycStatus = _customer.upVotes > _customer.downVotes && (_customer.downVotes * 3 < activeBanksCount);\n    }\n\n    /// @notice To Approve Customer KYC\n    /// @dev\n    /// @param _customerName unique name of the customer\n    function upvoteCustomer(string memory _customerName) public activeBank kycExists(_customerName) hasVotedAlready(_customerName) {\n        Customer storage detail = customers[_customerName];\n        require(detail.bank != address(0), \"Customer doesn't exist\");\n        detail.upVotes++;\n        _checkCustomerKYCConditions(detail);\n        _recordVoting(_customerName);\n    }\n\n    /// @notice To decline customer KYC\n    /// @dev\n    /// @param _customerName unique name of the customer\n    function downvoteCustomer(string memory _customerName) public activeBank kycExists(_customerName) hasVotedAlready(_customerName) {\n        Customer storage detail = customers[_customerName];\n        require(detail.bank != address(0), \"Customer doesn't exist\");\n        detail.downVotes++;\n        _checkCustomerKYCConditions(detail);\n        _recordVoting(_customerName);\n    }\n\n    /// @notice To initiate the KYC request. If customer is not present then it will be addded. Also if there is request already for the customer then error will be thrown\n    /// @dev\n    /// @param _customerName unique name of the customer\n    /// @param _dataHash data of the customer\n    function addRequest(string calldata _customerName, string calldata _dataHash) external activeBank {\n        Customer storage detail = customers[_customerName];\n        if(detail.bank == address(0)){ // Customer not present, so add to the system b4 initiating the KYC\n            addCustomer(_customerName, _dataHash);\n        }\n        require(bankCustomerKYCRequestsMap[msg.sender][_customerName].bankAddress == address(0),\"KYC Request Exist Already\");\n        bankCustomerKYCRequestsMap[msg.sender][_customerName] = KYCRequest(_customerName,msg.sender,_dataHash);\n        if(customerKYCCountMap[_customerName]>0){\n            customerKYCCountMap[_customerName]++;\n        }else{\n            customerKYCCountMap[_customerName] = 1;\n        }\n\n        banks[msg.sender].kycCount++;\n    }\n\n    /// @notice to remove customer kyc request in queue API\n    /// @dev\n    /// @param _customerName unique name of the customer\n    function removeRequest(string calldata _customerName) external onlyBank {\n        require(bankCustomerKYCRequestsMap[msg.sender][_customerName].bankAddress != address(0),\"KYC Request doesn't exist\");\n        require(bankCustomerKYCRequestsMap[msg.sender][_customerName].bankAddress == msg.sender,\"KYC was added by a different bank\");\n        delete(bankCustomerKYCRequestsMap[msg.sender][_customerName]);\n        customerKYCCountMap[_customerName]--;\n    }\n\n}\n",
  "sourcePath": "/Users/snallayan/Fun/blockchain-playground/phase3/KYC-SC/contracts/KYC.sol",
  "compiler": {
    "name": "solc",
    "version": "0.8.0+commit.c7dfd78e.Emscripten.clang"
  },
  "schemaVersion": "3.4.1",
  "updatedAt": "2021-06-09T08:53:37.026Z",
  "networkType": "ethereum",
  "devdoc": {
    "details": "@author sedhu",
    "kind": "dev",
    "methods": {
      "addBank(string,address,string)": {
        "params": {
          "_bankAddress": "ethAddress of the bank",
          "_name": "bank name",
          "_registrationNumber": "bank registration number"
        }
      },
      "addCustomer(string,string)": {
        "details": "@param _customerName name of the customer",
        "params": {
          "_customerData": "datahash of the customer"
        }
      },
      "addRequest(string,string)": {
        "details": "@param _customerName unique name of the customer",
        "params": {
          "_dataHash": "data of the customer"
        }
      },
      "downvoteCustomer(string)": {
        "details": "@param _customerName unique name of the customer"
      },
      "getBankComplaints(address)": {
        "details": "@param _bankAddress ethAddress of the bank",
        "returns": {
          "_0": "[uint] no of complaints"
        }
      },
      "modifyCustomer(string,string)": {
        "details": "Resets customer votes and kyc status",
        "params": {
          "_customerData": "datahash of the customer",
          "_customerName": "name of the customer"
        }
      },
      "removeBank(address)": {
        "params": {
          "_bankAddress": "ethAddress of the bank"
        }
      },
      "removeRequest(string)": {
        "details": "@param _customerName unique name of the customer"
      },
      "reportBank(address)": {
        "details": "@param _bankAddress ethAddress of the bank"
      },
      "toggleVote(address,bool)": {
        "params": {
          "_bankAddress": "ethAddress of the bank",
          "_isAllowedToVote": "toggle voting rights of the bank"
        }
      },
      "upvoteCustomer(string)": {
        "details": "@param _customerName unique name of the customer"
      },
      "viewBankDetails(address)": {
        "details": "@param _bankAddress ethAddress of the bank",
        "returns": {
          "_0": "[Bank] object"
        }
      },
      "viewCustomer(string)": {
        "details": "@param _customerName name of the customer",
        "returns": {
          "_0": "data customer data hash",
          "_1": "kycStats KYC Status of the customer",
          "_2": "downVotes no of downVotes",
          "_3": "upVotes no of upvotes",
          "_4": "bank address of the bank which created the customr in the system"
        }
      }
    },
    "title": "KYC",
    "version": 1
  },
  "userdoc": {
    "kind": "user",
    "methods": {
      "addBank(string,address,string)": {
        "notice": "@dev"
      },
      "addCustomer(string,string)": {
        "notice": "Add customer api call"
      },
      "addRequest(string,string)": {
        "notice": "To initiate the KYC request. If customer is not present then it will be addded. Also if there is request already for the customer then error will be thrown"
      },
      "downvoteCustomer(string)": {
        "notice": "To decline customer KYC"
      },
      "getBankComplaints(address)": {
        "notice": "gets bank complaints count"
      },
      "modifyCustomer(string,string)": {
        "notice": "Modify customer data API"
      },
      "removeBank(address)": {
        "notice": "@dev"
      },
      "removeRequest(string)": {
        "notice": "to remove customer kyc request in queue API"
      },
      "reportBank(address)": {
        "notice": "repoting suspicios banks"
      },
      "toggleVote(address,bool)": {
        "notice": "@dev"
      },
      "upvoteCustomer(string)": {
        "notice": "To Approve Customer KYC"
      },
      "viewBankDetails(address)": {
        "notice": "to get the bank details"
      },
      "viewCustomer(string)": {
        "notice": "to view the customer data"
      }
    },
    "notice": "To handle KYC Workflows",
    "version": 1
  }
}